:020000040800F2
:1030000000500020E14300087543000877430008A2
:10301000794300087B4300087D430008000000005E
:103020000000000000000000000000007F430008D6
:103030008143000800000000834300088543000826
:1030400029440008294400082944000829440008AC
:10305000294400082944000829440008294400089C
:10306000294400082944000829440008294400088C
:10307000294400082944000829440008294400087C
:10308000294400082944000829440008294400086C
:10309000294400082944000829440008294400085C
:1030A000294400082944000829440008294400084C
:1030B000294400082944000829440008294400083C
:1030C000294400082944000829440008294400082C
:1030D000294400082944000829440008294400081C
:1030E0002944000829440008294400080000000081
:1030F00000000000000000000000000000000000D0
:0C31000000000000000000005FF808F173
:10310C0010B5054C237833B9044B13B10448AFF315
:10311C0000800123237010BD04000020000000007B
:10312C007444000808B5034B1BB103490348AFF3C3
:10313C00008008BD00000000080000207444000856
:10314C00084B10B5044618684FF47A73B0FBF3F0D3
:10315C0000F034FA002221464FF0FF3000F0FAF96B
:10316C00002010BD00000020074A08B5136803209A
:10317C0043F01003136000F0DBF90020FFF7E0FFD1
:10318C0001F05EF8002008BD00200240024A1368DE
:10319C0001331360704700BF20000020014B1868FA
:1031AC00704700BF200000200368D86C70470000F7
:1031BC00002373B5019390F82430012B74D00123B4
:1031CC004D6880F82430062D02684FEA85030C68A0
:1031DC0025D82B441F25566B053B9D4026EA05053B
:1031EC0004FA03F32B435363092C4FEA44038D6811
:1031FC002FD907262344D1681E3B9E4021EA0601A5
:10320C0005FA03F30B43D360A4F11003012B2BD964
:10321C000023002280F82420184602B070BD0C2D2B
:10322C000BD82B441F25166B233B9D4026EA050526
:10323C0004FA03F32B431363D6E72B441F25D66AFA
:10324C00413B9D4026EA050504FA03F32B43D36268
:10325C00CAE70726116923449E4021EA060105FAB4
:10326C0003F30B431361CFE7104B9A4216D19368CB
:10327C001B02CDD49368102C43F400039360C7D188
:10328C000B4B0C4A1B68B3FBF2F20A23534301931A
:10329C00019B002BBCD0019B013BF8E7836A43F0F8
:1032AC00200383620123B4E70223B5E70024014025
:1032BC000000002040420F00002373B50193036807
:1032CC0004469A68D20702D5002002B070BD9A68F5
:1032DC0042F001029A60124B124A1B68B3FBF2F3E4
:1032EC000193019BC3B9FFF759FF064623689D68FC
:1032FC0015F00105E8D1FFF751FF801B0228F5D925
:10330C00A36A84F8245043F01003A362E36A0120FB
:10331C0043F00103E362D8E7019B013BE0E700BF08
:10332C000000002040420F0090F8243010B5012B13
:10333C00044654D0012380F82430FFF7BDFF002849
:10334C0049D1A36A274A23F4407323F0010343F4C1
:10335C008073A3622368934204D123494A6812F410
:10336C00702F2ED1A26A22F48012A2625A685205E2
:10337C0041BFA26A22F4405242F48052A262A26A75
:10338C0012F480521CBFE26A22F00602E2620022B2
:10339C0084F824206FF002021A609A6802F460220A
:1033AC00B2F5602F13D10F4A934205D1A2F580627A
:1033BC00526812F4702F0AD19A6842F4A0029A60F3
:1033CC0010BDA26A42F48012A2624A68CFE79A68E2
:1033DC0042F48012F3E7002384F8243010BD02205D
:1033EC0010BD00BF002801400024014038B503681F
:1033FC0004469A68D20701D4002038BD9A6822F09E
:10340C0001029A60FFF7CAFE054623689B68DB073A
:10341C00F2D5FFF7C3FE401B0228F6D9A36A0120A0
:10342C0043F01003A362E36A43F00103E36238BD87
:10343C0070B50446002871D0836A23B9C36280F842
:10344C00243000F045FF2046FFF7D0FFA36A13F0AD
:10345C00100FA36A64D1002862D1E16923F4885368
:10346C00626823F0020343F002030A43A168A362DB
:10347C00E368B1F5807F42EA430238D0012914BFDA
:10348C0006464FF480766569012D07D1002B30D1AB
:10349C00A369013B46EA433545F400662368B1F560
:1034AC00807F5D6825F4694545EA06055D609E6888
:1034BC001D4D05EA060545EA02059D6001D001296E
:1034CC0020D1216901390905DD6A25F470052943EC
:1034DC00D9629968154B0B409A4215D10023E362CF
:1034EC00A36A23F0030343F00103A36270BD0E46ED
:1034FC00C9E7A36A43F02003A362E36A43F0010324
:10350C00E362CBE70021DFE7A36A23F0120343F069
:10351C001003A362E36A43F00103E362012070BD70
:10352C0043F01003A362F9E7FDF7E1FFFE0E1FFF66
:10353C00074A0002D36800F4E06023F4E0631B0444
:10354C001B0C43F0BF6343F400330343D360704759
:10355C0000ED00E0174B30B5DC68C4F30224C4F175
:10356C000703251D042B28BF0423062D4FF001054E
:10357C0098BF002405FA03F303F1FF3388BF033C23
:10358C001940A14005FA04F4013C2240002842EA0B
:10359C0001024FEA0212AFBF00F16040064B00F08F
:1035AC000F00D2B2A5BFD2B200F561401A5480F818
:1035BC00002330BD00ED00E014ED00E00138B0F167
:1035CC00807F0AD2F021064B064A586082F82310FD
:1035DC000020072298601A6070470120704700BFD6
:1035EC0010E000E000ED00E0044B04281A680CBF6A
:1035FC0042F0040222F004021A60704710E000E06E
:10360C00704708B5FFF7FCFF08BD00002DE9F74F28
:10361C0000221646654BDFF8A4E1DFF8A4C14FF099
:10362C0001080C6808FA06F808EA0404A0457FD1E2
:10363C004D68122D00F0AF8000F28880022D00F052
:10364C00A7807CD8002D00F08E80012D00F09E808C
:10365C004FF00F09FF2C93BF824606F18045083DC1
:10366C00D0F800B092BFB500D0F804B0AD0009FAA4
:10367C0005F82BEA080802FA05F588BF00F1040AE0
:10368C0048EA0505CAF80050D1F804A01AF0805F8A
:10369C004ED0474D464FAD6926F0030845F0010565
:1036AC00BD61BD6908F1804805F00105019508F57B
:1036BC00803806F0030B019D4FEA8B0BD8F80850AD
:1036CC0009FA0BF925EA09093A4DA84268D005F523
:1036DC008065A84266D005F58065A84264D005F5E2
:1036EC008065A8420CBF0325042505FA0BF545EAB5
:1036FC000905C8F808501D681AF4803F14BF25430B
:10370C00A5431D605D681AF4003F14BF2543A54313
:10371C005D609D681AF4801F14BF2543A5439D600E
:10372C00DD681AF4001F14BF2C4325EA0404DC6086
:10373C000136102E7FF473AF03B0BDE8F08F032D6C
:10374C0022D0112D84D1CA68043281E71A4FBD42B0
:10375C0009D012D8DFF86C904D4504D009F58039AA
:10376C004D457FF475AF8A68C2B1012A0CBFC0F811
:10377C001080C0F8148008226AE77545F3D06545BF
:10378C00F1D0DFF84490EBE7002261E7CA685FE70D
:10379C00CA6808325CE7CA680C3259E7042257E75A
:1037AC000025A2E70125A0E702259EE700040140C1
:1037BC0000100240000801400000211000003110F0
:1037CC000000321000001110000022100AB101613B
:1037DC0070470904FBE7000003682DE9F341DB07A0
:1037EC00054610D42B689F075ED42B68190700F18F
:1037FC0095802B685A0700F1BF80EA69002A40F0D7
:10380C002D81002014E0904C636803F00C03042B12
:10381C0007D0636803F00C03082B0CD16368DE033C
:10382C0009D523689C03DDD56B68002BDAD1012008
:10383C0002B0BDE8F0816B68B3F5803F10D123680E
:10384C0043F480332360FFF7A9FC064623689803F2
:10385C00C8D4FFF7A3FC801B6428F7D90320E7E743
:10386C009BB9236823F480332360236823F48023DB
:10387C002360FFF793FC064623689903B2D5FFF744
:10388C008DFC801B6428F7D9E8E7B3F5A02F2368DB
:10389C0003D143F480232360D1E723F480332360E6
:1038AC00236823F48023CDE7674C636813F00C0F77
:1038BC0007D0636803F00C03082B10D16368DA039C
:1038CC000DD423689B0702D52B69012BAFD123683C
:1038DC006A6923F0F80343EAC203236085E72A6987
:1038EC005A4B6AB101221A60FFF758FC064623684E
:1038FC009F07ECD4FFF752FC801B0228F7D9ADE7E9
:10390C001A60FFF74BFC0646236898077FF56DAFEE
:10391C00FFF744FC801B0228F6D99FE7AA694A4CA2
:10392C004B4BDAB101221A60FFF738FC0646636A8A
:10393C009B070DD54FF4FA52464B1B68B3FBF2F3C1
:10394C00019300BF019B5A1E0192002BF9D150E745
:10395C00FFF724FC801B0228E9D97FE71A60FFF7E8
:10396C001DFC0646636A9F077FF543AFFFF716FC05
:10397C00801B0228F6D971E7334CE369D80024D4B4
:10398C000127E36943F08053E361E36903F080535B
:10399C000093009B304E3368D90518D5EB68012B8A
:1039AC0026D1236A43F001032362FFF7F7FB41F2B0
:1039BC0088368046236A9B073FD5002F3FF41DAF06
:1039CC00E36923F08053E36117E70027E2E73368EC
:1039DC0043F480733360FFF7E1FB80463368DA050C
:1039EC00DCD4FFF7DBFBA0EB08006428F6D935E745
:1039FC00ABB9236A41F2883823F001032362236AAE
:103A0C0023F004032362FFF7C9FB0646236A9807D9
:103A1C00D3D5FFF7C3FB801B4045F7D91EE7052B19
:103A2C00236A03D143F004032362BAE723F00103B2
:103A3C002362236A23F00403B6E7FFF7AFFBA0EB86
:103A4C000800B042B6D909E700100240000042421B
:103A5C00800442420000002000700040224C636849
:103A6C0003F00C03082B3FF4E2AE00231F4E022A96
:103A7C0033602BD1FFF792FB0746236899011FD4C3
:103A8C002B6AB3F5803F05D16268A96822F4003235
:103A9C000A436260696A62680B4322F4741213432E
:103AAC00636001233360FFF779FB054623689A01B5
:103ABC003FF5A7AEFFF772FB401B0228F6D9CDE607
:103ACC00FFF76CFBC01B0228D7D9C7E6FFF766FBD4
:103ADC00054623689B017FF594AEFFF75FFB401B07
:103AEC000228F6D9BAE600BF00100240600042423C
:103AFC0030B51A4B87B002AC03F11005224618689A
:103B0C005968083303C2AB421446F7D101238DF830
:103B1C000430022312498DF805304B6803F00C0277
:103B2C00082A18D1C3F38342DB0348BF4B6806A8AD
:103B3C00024448BFC3F3404312F8100C41BF06AA1D
:103B4C009B1813F8142C074B54BF074BB3FBF2F321
:103B5C00584307B030BD0348FBE700BF8C44000856
:103B6C000010024000127A0000093D004D4A2DE978
:103B7C00F0411368054603F007038B420E4628D329
:103B8C002A68910732D4D20738D4464A136803F016
:103B9C0007039E4273D32A68434C12F0040F79D169
:103BAC00130706D563682A6923F4605343EAC203FA
:103BBC006360FFF79DFF63683C4AC3F30313D35C58
:103BCC00D8403B4B18600020FFF7BAFA0020BDE844
:103BDC00F081136823F007030B431360136803F0A1
:103BEC0007039942CCD00120BDE8F0812E49A8688A
:103BFC004B6823F0F00303434B60C4E76A682A4C1C
:103C0C00012A23681CD113F4003FECD0636841F205
:103C1C00883823F0030313436360FFF7BFFA6B6824
:103C2C000746012B14D1636803F00C03042BACD0B2
:103C3C00FFF7B4FAC01B4045F5D90320BDE8F0816D
:103C4C00022A02D113F0007FDFE713F0020FDCE74A
:103C5C00022B0FD1636803F00C03082B95D0FFF7F0
:103C6C009DFAC01B4045F5D9E7E7FFF797FAC01B53
:103C7C004045E2D8636813F00C0FF6D185E7136862
:103C8C0023F0070333431360136803F007039E42CA
:103C9C00A9D180E76368E96823F4E0630B436360B0
:103CAC007EE700BF0020024000100240B3940008E1
:103CBC0000000020014B1868704700BF0000002076
:103CCC00044B054A5B68C3F30223D35C034A1068B8
:103CDC00D840704700100240C39400080000002038
:103CEC00044B054A5B68C3F3C223D35C034A1068D8
:103CFC00D840704700100240C39400080000002018
:103D0C0003682DE9F341D907054620D5354CE36905
:103D1C00DA0032D40127E36943F08053E361E369AD
:103D2C0003F080530193019B2F4E3368DB0526D59E
:103D3C00236A13F4407336D1236A6A6823F4407300
:103D4C00134323621FB1E36923F08053E3612868B6
:103D5C00830706D5234AA968536823F440430B43D1
:103D6C00536010F010001BD01E4AE9685368002005
:103D7C0023F480030B43536012E00027D4E733682D
:103D8C0043F480733360FFF709FA80463368D80533
:103D9C00CED4FFF703FAA0EB08006428F6D9032071
:103DAC0002B0BDE8F0816A6802F440729342C3D05D
:103DBC0001200E4A236A1060002023F44071106029
:103DCC002162D907B8D5FFF7E9F941F288380646E0
:103DDC00236A9A07B0D4FFF7E1F9801B4045F7D965
:103DEC00DDE700BF0010024000700040400442427A
:103DFC002DE9F0470568C2682B69016923F440532B
:103E0C0013432B618368EA680B43416922F4B05277
:103E1C0022F00C020B431343EB606B69826923F4B1
:103E2C00407313436B61404B81469D424FF0190424
:103E3C0046D1FFF755FF04FB00F3D9F804604FF0AF
:103E4C006408B600B3FBF6F3B3FBF8F31E01FFF7FF
:103E5C0047FF6043D9F804309B00B0FBF3F7FFF742
:103E6C003FFF6043D9F804309B00B0FBF3F3B3FB86
:103E7C00F8F308FB13731B013233B3FBF8F303F0B5
:103E8C00F007FFF72DFF6043D9F804209200B0FB38
:103E9C00F2FAFFF725FF6043D9F804309B00B0FB22
:103EAC00F3F3B3FBF8F308FB13A31B013233B3FB9F
:103EBC00F8F303F00F033B433344AB60BDE8F087EA
:103ECC00FFF7FEFE04FB00F3D9F804604FF0640822
:103EDC00B600B3FBF6F3B3FBF8F31E01FFF7F0FEED
:103EEC006043D9F804309B00B0FBF3F7FFF7E8FE12
:103EFC006043D9F804309B00B0FBF3F3B3FBF8F349
:103F0C0008FB13731B013233B3FBF8F303F0F00718
:103F1C00FFF7D6FE6043D9F804209200B0FBF2FA0A
:103F2C00FFF7CEFEB7E700BF00380140F8B50446F6
:103F3C000E4617461D4621680B6836EA030301D16D
:103F4C000020F8BD6B1CF7D095B923680320DA6804
:103F5C0022F4D072DA605A6922F001025A612023ED
:103F6C0084F8393084F83A30002384F83830F8BDBE
:103F7C00FFF714F9C01B8542DDD2E6E710B5044605
:103F8C0040B390F8393003F0FF021BB980F83820A9
:103F9C0000F0BEF92423226884F83930D368204617
:103FAC0023F40053D360FFF723FF236800201A6922
:103FBC0022F490421A615A6922F02A025A61DA6894
:103FCC0042F40052DA602023E06384F8393084F83C
:103FDC003A3010BD012010BD2DE9F0411F4690F87C
:103FEC0039300446202B0D4690464ED1002949D03D
:103FFC00002A47D090F83830012B46D0012380F8A6
:10400C0038300023C363212380F83930FFF7C6F81A
:10401C000646A4F82480A4F82680E38C9BB26BB9E6
:10402C003B46324640212046FFF780FFA8B92023AB
:10403C0084F8380084F83930BDE8F081E38C3246DE
:10404C00013B9BB2E384A3688021B3F5805F2046DB
:10405C003B460ED1FFF76AFF10B10320BDE8F0819B
:10406C002B882268C3F308035360236943B90235D4
:10407C00D3E7FFF75BFF0028EFD123682A785A605B
:10408C000135CAE70120BDE8F0810220BDE8F081CE
:10409C00012310B594B00E93102302240F93002328
:1040AC000AA80A941193FFF797FB014600B1FEE7AB
:1040BC000F23069007900890099005A80593FFF729
:1040CC0055FD00B1FEE7039001A80194FFF718FE1F
:1040DC00044600B1FEE7FFF7EDFD4FF47A73B0FB39
:1040EC00F3F0FFF76BFA0420FFF77EFA2246214625
:1040FC004FF0FF30FFF72EFA14B010BD70B58AB038
:10410C00FFF732F8FFF7C4FF444B4FF400519A69A4
:10411C00434842F010029A619A69012502F010029C
:10412C000292029A9A693F4C42F004029A619B698E
:10413C00002203F004030393039BFFF747FB4FF4A8
:10414C00005304930223364804A907930595FFF7FF
:10415C005DFA354B4FF46022236000232046A360A8
:10416C00E3606361E26163602561FFF761F900B1AF
:10417C00FEE70323069004A9204604930595FFF758
:10418C0017F800B1FEE74FF41652284B28499860F7
:10419C0083E806000C22D86018619861D861184633
:1041AC005A61FFF7EBFE00B1FEE70A23ADF80430CD
:1041BC00204B04AA03F110051446186859680833FB
:1041CC0003C4AB422246F7D1186899889B792060CA
:1041DC00A180A3711722642304A91448FFF7FCFEE5
:1041EC00104C154E114D2046FFF79EF82046FEF759
:1041FC00DBFF00EB80003118642304222846FFF714
:10420C00EBFE6423022201A92846FFF7E5FE0023FA
:10421C000A4A01339342FCD1E5E700BF001002408B
:10422C000010014024000020002401405400002014
:10423C00003801409C440008B344000840420F0081
:10424C00214B07B59A69032042F001029A619B69E0
:10425C0003F001030193019BFFF76AF900226FF051
:10426C000B001146FFF776F900226FF00A00114699
:10427C00FFF770F900226FF009001146FFF76AF999
:10428C0000226FF004001146FFF764F900226FF072
:10429C0003001146FFF75EF900226FF00100114692
:1042AC00FFF758F900224FF0FF301146FFF752F993
:1042BC00064B5A6822F0E0625A605A6842F08062FB
:1042CC005A6003B05DF804FB00100240000001408E
:1042DC007FB502680C4B9A4212D103F56C439A6974
:1042EC0002A942F400729A619B69084803F40073B6
:1042FC000193019B0823029303230393FFF786F991
:10430C0007B05DF804FB00BF002401400008014029
:10431C007FB50268124B9A421FD103F558439A6934
:10432C0002A942F480429A619B690E4803F48043CF
:10433C000193019B4FF40073029302230393032315
:10434C000593FFF763F94FF480630293002302A9EE
:10435C00044803930493FFF759F907B05DF804FB85
:10436C0000380140000801407047FEE7FEE7FEE719
:10437C00FEE770477047704708B5FEF707FFBDE8CA
:10438C000840FFF73EB900000F4B1A6842F00102DB
:10439C001A6059680D4A0A405A601A6822F08472F1
:1043AC0022F480321A601A6822F480221A605A6849
:1043BC0022F4FE025A604FF41F029A604FF0006222
:1043CC00034B9A60704700BF001002400000FFF8DA
:1043DC0000ED00E0002103E00B4B5B58435004312F
:1043EC000A480B4B42189A42F6D30A4A02E00023C1
:1043FC0042F8043B084B9A42F9D3FFF7C5FF00F093
:10440C000FF8FFF77BFE7047D494000800000020E3
:10441C00040000200400002094000020FEE70000AF
:10442C0070B500250C4E0D4CA41BA410A54209D14F
:10443C0000F01AF800250A4E0A4CA41BA410A54241
:10444C0005D170BD56F8253098470135EEE756F882
:10445C00253098470135F2E7CC940008CC9400083D
:10446C00CC940008D0940008F8B500BFF8BC08BC88
:10447C009E467047F8B500BFF8BC08BC9E46704716
:10448C0002030405060708090A0B0C0D0E0F101089
:10449C0057656C636F6D6520746F20746865204878
:1044AC00454C4C21210A0030303030003030303057
:1044BC0000303030310030303032003030303300AA
:1044CC003030303400303030340030303035003063
:1044DC00303036003030303700303030380030304B
:1044EC00303800303030390030303130003030313D
:1044FC003100303031320030303132003030313335
:10450C00003030313400303031350030303136004D
:10451C003030313600303031370030303138003007
:10452C003031390030303230003030323000303001
:10453C0032310030303232003030323300303032F1
:10454C0034003030323400303032350030303236D6
:10455C0000303032370030303238003030323900F1
:10456C0030303239003030333000303033310030BD
:10457C0030333200303033330030303333003030AE
:10458C003334003030333500303033360030303394
:10459C003700303033370030303338003030333977
:1045AC0000303034300030303431003030343100B1
:1045BC00303034320030303433003030343400306A
:1045CC003034350030303435003030343600303053
:1045DC003437003030343800303034390030303437
:1045EC003900303035300030303531003030353234
:1045FC000030303533003030353300303035340056
:10460C00303035350030303536003030353700300D
:10461C0030353800303035380030303539003030F6
:10462C0036300030303631003030363200303036F3
:10463C0032003030363300303036340030303635DE
:10464C0000303036360030303636003030363700F9
:10465C0030303638003030363900303037300030BA
:10466C0030373000303037310030303732003030B6
:10467C003733003030373400303037340030303797
:10468C00350030303736003030373700303037387F
:10469C0000303037380030303739003030383000A7
:1046AC003030383100303038320030303833003070
:1046BC00303833003030383400303038350030305A
:1046CC00383600303038370030303837003030383A
:1046DC003800303038390030303930003030393132
:1046EC00003030393100303039320030303933005D
:1046FC003030393400303039350030303935003015
:10470C0030393600303039370030303938003030FD
:10471C0039390030303939003031303000303130F7
:10472C003100303130320030313033003031303301
:10473C00003031303400303130350030313036001B
:10474C0030313037003031303700303130380030D4
:10475C0031303900303131300030313131003031CD
:10476C0031320030313132003031313300303131BF
:10477C0034003031313500303131360030313136A2
:10478C0000303131370030313138003031313900BF
:10479C003031323000303132300030313231003093
:1047AC00313232003031323300303132340030317A
:1047BC003234003031323500303132360030313263
:1047CC003700303132380030313238003031323944
:1047DC00003031333000303133310030313332007E
:1047EC003031333200303133330030313334003038
:1047FC00313335003031333600303133360030311F
:10480C003337003031333800303133390030313404
:10481C003000303134310030313431003031343209
:10482C000030313433003031343400303134350021
:10483C0030313435003031343600303134370030DB
:10484C0031343800303134390030313439003031C2
:10485C0035300030313531003031353200303135C2
:10486C0033003031353300303135340030313535AB
:10487C0000303135360030313537003031353700C6
:10488C003031353800303135390030313630003088
:10489C003136310030313631003031363200303182
:1048AC003633003031363400303136350030313665
:1048BC00360030313636003031363700303136384C
:1048CC00003031363900303137300030313730007C
:1048DC00303137310030313732003031373300303E
:1048EC003137340030313734003031373500303126
:1048FC003736003031373700303137380030313708
:10490C0038003031373900303138300030313831FF
:10491C000030313832003031383200303138330029
:10492C0030313834003031383500303138360030E1
:10493C0031383600303138370030313838003031CA
:10494C0038390030313930003031393000303139BC
:10495C0031003031393200303139330030313934B3
:10496C0000303139350030313935003031393600CD
:10497C003031393700303139380030313939003085
:10498C003139390030323030003032303100303291
:10499C00303200303230330030323033003032308D
:1049AC00340030323035003032303600303230376F
:1049BC00003032303700303230380030323039008D
:1049CC003032313000303231310030323131003060
:1049DC003231320030323133003032313400303247
:1049EC003135003032313500303231360030323131
:1049FC003700303231380030323139003032313911
:104A0C00003032323000303232310030323232004B
:104A1C003032323300303232340030323234003003
:104A2C0032323500303232360030323237003032EA
:104A3C0032380030323238003032323900303233D2
:104A4C0030003032333100303233320030323332D6
:104A5C0000303233330030323334003032333500EF
:104A6C0030323336003032333600303233370030A8
:104A7C003233380030323339003032343000303297
:104A8C003430003032343100303234320030323491
:104A9C003300303234340030323434003032343578
:104AAC000030323436003032343700303234380093
:104ABC003032343900303234390030323530003055
:104ACC00323531003032353200303235330030324D
:104ADC003533003032353400303235350030323534
:104AEC003600303235370030323537003032353819
:104AFC000030323539003032363000303236310049
:104B0C00303236310030323632003032363300300B
:104B1C0032363400303236350030323635003032F1
:104B2C0036360030323637003032363800303236D6
:104B3C0039003032363900303237300030323731CC
:104B4C0000303237320030323733003032373300F6
:104B5C0030323734003032373500303237360030AF
:104B6C003237370030323738003032373800303295
:104B7C00373900303238300030323831003032388A
:104B8C003200303238320030323833003032383480
:104B9C00003032383500303238360030323836009A
:104BAC003032383700303238380030323839003053
:104BBC003239300030323930003032393100303255
:104BCC003932003032393300303239340030323936
:104BDC003400303239350030323936003032393722
:104BEC00003032393800303239380030323939003F
:104BFC00303330300030333031003033303200302D
:104C0C003330330030333033003033303400303312
:104C1C0030350030333036003033303700303330FD
:104C2C0037003033303800303330390030333130E6
:104C3C000030333131003033313100303331320018
:104C4C0030333133003033313400303331350030D0
:104C5C0033313500303331360030333137003033B7
:104C6C0031380030333139003033313900303332A0
:104C7C0030003033323100303332320030333233A3
:104C8C0000303332330030333234003033323500BD
:104C9C003033323600303332370030333237003075
:104CAC003332380030333239003033333000303364
:104CBC00333100303333320030333332003033335E
:104CCC003300303333340030333335003033333644
:104CDC000030333336003033333700303333380061
:104CEC00303333390030333430003033343000302B
:104CFC00333431003033343200303334330030331A
:104D0C003434003033343400303334350030333401
:104D1C0036003033343700303334380030333438E5
:104D2C000030333439003033353000303335310016
:104D3C0030333532003033353200303335330030D8
:104D4C0033353400303335350030333536003033BD
:104D5C0035360030333537003033353800303335A5
:104D6C0039003033363000303336310030333631A1
:104D7C0000303336320030333633003033363400C3
:104D8C00303336350030333635003033363600307C
:104D9C003336370030333638003033363900303361
:104DAC003639003033373000303337310030333759
:104DBC00320030333733003033373300303337344D
:104DCC000030333735003033373600303337370067
:104DDC003033373700303337380030333739003021
:104DEC003338300030333831003033383100303321
:104DFC003832003033383300303338340030333805
:104E0C0035003033383600303338360030333837ED
:104E1C000030333838003033383900303339300013
:104E2C0030333930003033393100303339320030DF
:104E3C0033393300303339340030333934003033C4
:104E4C0039350030333936003033393700303339A7
:104E5C0038003033393800303339390030343030A1
:104E6C0000303430310030343032003034303200E5
:104E7C00303430330030343034003034303500309E
:104E8C003430360030343036003034303700303483
:104E9C003038003034303900303431300030343177
:104EAC003000303431310030343132003034313371
:104EBC000030343134003034313500303431350089
:104ECC003034313600303431370030343138003042
:104EDC003431390030343139003034323000303430
:104EEC00323100303432320030343233003034322C
:104EFC003300303432340030343235003034323612
:104F0C00003034323700303432370030343238002D
:104F1C0030343239003034333000303433310030F7
:104F2C0034333100303433320030343333003034E6
:104F3C0033340030343335003034333500303433CF
:104F4C0036003034333700303433380030343339B2
:104F5C0000303433390030343430003034343100E4
:104F6C0030343432003034343300303434340030A4
:104F7C00343434003034343500303434360030348A
:104F8C003437003034343800303434380030343472
:104F9C00390030343530003034353100303435326E
:104FAC000030343532003034353300303435340091
:104FBC003034353500303435360030343536003049
:104FCC00343537003034353800303435390030342E
:104FDC003630003034363000303436310030343630
:104FEC00320030343633003034363400303436341A
:104FFC000030343635003034363600303436370035
:10500C0030343638003034363900303436390030EC
:10501C0034373000303437310030343732003034EC
:10502C0037330030343733003034373400303437D2
:10503C0035003034373600303437370030343737BA
:10504C0000303437380030343739003034383000E1
:10505C0030343831003034383100303438320030AC
:10506C003438330030343834003034383500303490
:10507C003835003034383600303438370030343876
:10508C003800303438390030343839003034393065
:10509C000030343931003034393200303439330097
:1050AC003034393300303439340030343935003051
:1050BC003439360030343937003034393800303434
:1050CC003938003034393900303530300030353033
:1050DC00310030353032003035303200303530333D
:1050EC000030353034003035303500303530360056
:1050FC003035303600303530370030353038003010
:10510C003530390030353130003035313000303504
:10511C0031310030353132003035313300303531FA
:10512C0034003035313400303531350030353136DE
:10513C0000303531370030353138003035313800FA
:10514C0030353139003035323000303532310030C5
:10515C0035323200303532330030353233003035B1
:10516C00323400303532350030353236003035329D
:10517C00370030353237003035323800303532397F
:10518C0000303533300030353331003035333100B9
:10519C003035333200303533330030353334003072
:1051AC003533350030353335003035333600303556
:1051BC003337003035333800303533390030353340
:1051CC00390030353430003035343100303534323C
:1051DC00003035343300303534330030353434005E
:1051EC003035343500303534360030353437003016
:1051FC0035343700303534380030353439003035FB
:10520C0035300030353531003035353200303535FC
:10521C0032003035353300303535340030353535E6
:10522C000030353536003035353600303535370001
:10523C0030353538003035353900303536300030C2
:10524C0035363000303536310030353632003035B9
:10525C0036330030353634003035363400303536A0
:10526C003500303536360030353637003035363887
:10527C0000303536380030353639003035373000AF
:10528C003035373100303537320030353732003079
:10529C00353733003035373400303537350030355D
:1052AC003736003035373600303537370030353744
:1052BC00380030353739003035383000303538313A
:1052CC000030353831003035383200303538330065
:1052DC00303538340030353835003035383500301D
:1052EC003538360030353837003035383800303501
:1052FC0038390030353839003035393000303539EF
:10530C0031003035393200303539330030353933EE
:10531C000030353934003035393500303539360008
:10532C0030353937003035393700303539380030C1
:10533C0035393900303630300030363031003036C7
:10534C0030310030363032003036303300303630C9
:10535C0034003036303500303630360030363036AA
:10536C0000303630370030363038003036303900C7
:10537C00303631300030363130003036313100309B
:10538C00363132003036313300303631340030367D
:10539C00313400303631350030363136003036316C
:1053AC00370030363138003036313800303631394C
:1053BC000030363230003036323100303632320086
:1053CC003036323200303632330030363234003040
:1053DC003632350030363236003036323600303622
:1053EC00323700303632380030363239003036330E
:1053FC003000303633300030363331003036333213
:10540C000030363333003036333400303633350029
:10541C0030363335003036333600303633370030E3
:10542C0036333800303633390030363339003036C5
:10543C0034300030363431003036343200303634CB
:10544C0033003036343300303634340030363435B3
:10545C0000303634360030363437003036343700CE
:10546C003036343800303634390030363530003090
:10547C003635310030363531003036353200303685
:10548C00353300303635340030363535003036356E
:10549C003500303635360030363537003036353855
:1054AC000030363539003036363000303636300084
:1054BC003036363100303636320030363633003046
:1054CC003636340030363634003036363500303629
:1054DC003636003036363700303636380030363611
:1054EC003800303636390030363730003036373108
:1054FC000030363732003036373200303637330032
:10550C0030363734003036373500303637360030E9
:10551C0036373600303637370030363738003036CD
:10552C0037390030363830003036383000303638C5
:10553C0031003036383200303638330030363834BB
:10554C0000303638340030363835003036383600D6
:10555C00303638370030363838003036383900308D
:10556C003638390030363930003036393100303683
:10557C003932003036393300303639330030363971
:10558C00340030363935003036393600303639375C
:10559C00003036393700303639380030363939007A
:1055AC003037303000303730310030373031003068
:1055BC00373032003037303300303730340030374A
:1055CC00303500303730350030373036003037303A
:1055DC003700303730380030373039003037303919
:1055EC000030373130003037313100303731320054
:1055FC00303731330030373133003037313400300D
:10560C0037313500303731360030373137003037ED
:10561C0031380030373138003037313900303732DB
:10562C0030003037323100303732320030373232DE
:10563C0000303732330030373234003037323500F7
:10564C0030373236003037323600303732370030B0
:10565C00373238003037323900303733300030379A
:10566C00333000303733310030373332003037339A
:10567C003300303733340030373334003037333580
:10568C00003037333600303733370030373338009B
:10569C00303733380030373339003037343000305E
:1056AC003734310030373432003037343300303750
:1056BC00343300303734340030373435003037343D
:1056CC003600303734370030373437003037343821
:1056DC000030373439003037353000303735310051
:1056EC003037353100303735320030373533003014
:1056FC0037353400303735350030373535003037F5
:10570C0035360030373537003037353800303735DF
:10571C0039003037353900303736300030373631D4
:10572C0000303736320030373633003037363300FE
:10573C0030373634003037363500303736360030B7
:10574C003736370030373637003037363800303799
:10575C003639003037373000303737310030373793
:10576C003200303737320030373733003037373488
:10577C0000303737350030373736003037373600A2
:10578C00303737370030373738003037373900305B
:10579C003738300030373830003037383100303758
:1057AC00383200303738330030373834003037383F
:1057BC00340030373835003037383600303738372A
:1057CC000030373838003037383800303738390047
:1057DC00303739300030373931003037393200301A
:1057EC0037393200303739330030373934003037FD
:1057FC0039350030373936003037393600303739E3
:10580C0037003037393800303739390030383030DC
:10581C000030383031003038303100303830320020
:10582C0030383033003038303400303830350030D8
:10583C0038303500303830360030383037003038BA
:10584C0030380030383039003038303900303831A9
:10585C0030003038313100303831320030383133AB
:10586C0000303831330030383134003038313500C5
:10587C00303831360030383137003038313700307D
:10588C003831380030383139003038323000303867
:10589C003231003038323100303832320030383268
:1058AC00330030383234003038323500303832364C
:1058BC000030383236003038323700303832380069
:1058CC003038323900303833300030383330003033
:1058DC00383331003038333200303833330030381D
:1058EC00333400303833340030383335003038330B
:1058FC0036003038333700303833380030383338EE
:10590C00003038333900303834300030383431001E
:10591C0030383432003038343200303834330030E0
:10592C0038343400303834350030383436003038C0
:10593C0034360030383437003038343800303834AE
:10594C0039003038353000303835300030383531AA
:10595C0000303835320030383533003038353400CB
:10596C003038353500303835350030383536003084
:10597C003835370030383538003038353900303864
:10598C003539003038363000303836310030383662
:10599C003200303836330030383633003038363455
:1059AC00003038363500303836360030383637006F
:1059BC003038363700303836380030383639003029
:1059CC003837300030383731003038373100303824
:1059DC00373200303837330030383734003038370E
:1059EC0035003038373500303837360030383737F7
:1059FC000030383738003038373900303837390014
:105A0C0030383830003038383100303838320030E7
:105A1C0038383300303838340030383834003038C7
:105A2C0038350030383836003038383700303838B0
:105A3C0038003038383800303838390030383930A0
:105A4C0000303839310030383932003038393200D2
:105A5C00303839330030383934003038393500308B
:105A6C00383936003038393600303839370030386C
:105A7C00393800303839390030393030003039306D
:105A8C003000303930310030393032003039303379
:105A9C000030393034003039303400303930350092
:105AAC00303930360030393037003039303800304A
:105ABC003930390030393039003039313000303933
:105ACC003131003039313200303931330030393135
:105ADC00330030393134003039313500303931361A
:105AEC000030393137003039313700303931380036
:105AFC003039313900303932300030393231003000
:105B0C0039323100303932320030393233003039E9
:105B1C0032340030393235003039323500303932D8
:105B2C0036003039323700303932380030393239BA
:105B3C0000303932390030393330003039333100EC
:105B4C0030393332003039333300303933330030AD
:105B5C00393334003039333500303933360030398D
:105B6C00333700303933380030393338003039337B
:105B7C003900303934300030393431003039343276
:105B8C000030393432003039343300303934340099
:105B9C003039343500303934360030393436003051
:105BAC003934370030393438003039343900303931
:105BBC003530003039353000303935310030393539
:105BCC003200303935330030393534003039353422
:105BDC00003039353500303935360030393537003D
:105BEC0030393538003039353800303935390030F6
:105BFC0039363000303936310030393632003039F0
:105C0C0036330030393633003039363400303936DB
:105C1C0035003039363600303936370030393637C2
:105C2C0000303936380030393639003039373000E9
:105C3C0030393731003039373100303937320030B4
:105C4C003937330030393734003039373500303993
:105C5C00373500303937360030393737003039377F
:105C6C00380030393739003039373900303938306D
:105C7C00003039383100303938320030393833009F
:105C8C003039383300303938340030393835003059
:105C9C003938360030393837003039383700303938
:105CAC00383800303938390030393930003039392A
:105CBC00310030393932003039393200303939332A
:105CCC000030393934003039393500303939360043
:105CDC0030393936003039393700303939380030FD
:105CEC00393939003130303000313030300031301A
:105CFC00303100313030320031303033003130301F
:105D0C003400313030340031303035003130303601
:105D1C00003130303700313030380031303038001D
:105D2C0031303039003130313000313031310031E7
:105D3C0030313200313031320031303133003130DA
:105D4C0031340031303135003130313600313031C1
:105D5C0036003130313700313031380031303139A3
:105D6C0000313032300031303231003130323100DC
:105D7C003130323200313032330031303234003194
:105D8C00303235003130323500313032360031307E
:105D9C003237003130323800313032390031303264
:105DAC00390031303330003130333100313033325F
:105DBC000031303333003130333300313033340081
:105DCC003130333500313033360031303337003138
:105DDC003033370031303338003130333900313023
:105DEC003430003130343100313034310031303422
:105DFC00320031303433003130343400313034350A
:105E0C000031303436003130343600313034370024
:105E1C0031303438003130343900313035300031E4
:105E2C0030353000313035310031303532003130E1
:105E3C0035330031303534003130353400313035C4
:105E4C0035003130353600313035370031303538AA
:105E5C0000313035380031303539003130363000D2
:105E6C00313036310031303632003130363200319B
:105E7C003036330031303634003130363500313085
:105E8C003636003130363600313036370031303668
:105E9C00380031303639003130373000313037305E
:105EAC000031303731003130373200313037330088
:105EBC00313037340031303735003130373500313F
:105ECC003037360031303737003130373800313029
:105EDC003739003130373900313038300031303813
:105EEC003100313038320031303833003130383312
:105EFC00003130383400313038350031303836002C
:105F0C0031303837003130383700313038380031E3
:105F1C0030383900313039300031303931003130DE
:105F2C0039310031303932003130393300313039C8
:105F3C0034003130393500313039350031303936B3
:105F4C0000313039370031303938003130393900CF
:105F5C0031313030003131303000313130310031BD
:105F6C0031303200313130330031313034003131A5
:105F7C003034003131303500313130360031313090
:105F8C00370031313038003131303800313130396F
:105F9C0000313131300031313131003131313200A9
:105FAC003131313200313131330031313134003162
:105FBC00313135003131313600313131360031314A
:105FCC003137003131313800313131390031313232
:105FDC003000313132300031313231003131323236
:105FEC00003131323300313132340031313234004E
:105FFC003131323500313132360031313237003106
:10600C0031323800313132390031313239003131ED
:10601C0033300031313331003131333200313133EF
:10602C0033003131333300313133340031313335D6
:10603C0000313133360031313337003131333700F1
:10604C0031313338003131333900313134300031B2
:10605C0031343100313134310031313432003131AD
:10606C003433003131343400313134350031313492
:10607C003500313134360031313437003131343878
:10608C00003131343900313134390031313530009F
:10609C003131353100313135320031313533003168
:1060AC003135330031313534003131353500313152
:1060BC003536003131353700313135380031313535
:1060CC00380031313539003131363000313136312B
:1060DC000031313632003131363200313136330055
:1060EC00313136340031313635003131363600310C
:1060FC0031363600313136370031313638003131F6
:10610C0036390031313730003131373000313137E9
:10611C0031003131373200313137330031313734DE
:10612C0000313137340031313735003131373600F9
:10613C0031313737003131373800313137380031B0
:10614C0031373900313138300031313831003131AB
:10615C003832003131383300313138330031313895
:10616C00340031313835003131383600313138377F
:10617C00003131383700313138380031313839009D
:10618C00313139300031313931003131393100316F
:10619C003139320031313933003131393400313158
:1061AC003935003131393500313139360031313939
:1061BC003700313139380031313939003131393921
:1061CC000031323030003132303100313230320077
:1061DC00313230330031323033003132303400312F
:1061EC003230350031323036003132303700313216
:1061FC003037003132303800313230390031323101
:10620C003000313231310031323132003132313201
:10621C00003132313300313231340031323135001A
:10622C0031323136003132313600313231370031D2
:10623C0032313800313231390031323230003132C2
:10624C0032300031323231003132323200313232BE
:10625C0033003132323400313232340031323235A3
:10626C0000313232360031323237003132323800BE
:10627C003132323800313232390031323330003180
:10628C003233310031323332003132333200313279
:10629C003333003132333400313233350031323361
:1062AC003600313233360031323337003132333845
:1062BC000031323339003132343000313234310074
:1062CC003132343100313234320031323433003136
:1062DC00323434003132343500313234350031321D
:1062EC003436003132343700313234380031323404
:1062FC0039003132343900313235300031323531F8
:10630C000031323532003132353300313235330021
:10631C0031323534003132353500313235360031D9
:10632C0032353700313235370031323538003132C1
:10633C0035390031323630003132363100313236B7
:10634C0031003132363200313236330031323634AC
:10635C0000313236350031323636003132363600C5
:10636C00313236370031323638003132363900317D
:10637C003237300031323730003132373100313280
:10638C003732003132373300313237340031323763
:10639C00340031323735003132373600313237374D
:1063AC00003132373800313237380031323739006A
:1063BC00313238300031323831003132383200313C
:1063CC003238320031323833003132383400313225
:1063DC003835003132383600313238360031323807
:1063EC0037003132383800313238390031323930F7
:1063FC00003132393000313239310031323932002A
:10640C0031323933003132393400313239350031DF
:10641C0032393500313239360031323937003132C8
:10642C0039380031323939003132393900313330B1
:10643C0030003133303100313330320031333033CE
:10644C0000313330330031333034003133303500E8
:10645C00313330360031333037003133303700319F
:10646C00333038003133303900313331300031338F
:10647C00313100313331310031333132003133318C
:10648C003300313331340031333135003133313570
:10649C00003133313600313331370031333138008C
:1064AC003133313900313332300031333230003155
:1064BC003332310031333232003133323300313345
:1064CC00323400313332340031333235003133322F
:1064DC003600313332370031333238003133323811
:1064EC000031333239003133333000313333310042
:1064FC003133333200313333320031333333003103
:10650C0033333400313333350031333336003133E8
:10651C0033360031333337003133333800313333D2
:10652C0039003133343000313334300031333431CD
:10653C0000313334320031333433003133343400EE
:10654C0031333434003133343500313334360031A7
:10655C00333437003133343800313334390031338C
:10656C003439003133353000313335310031333586
:10657C003200313335330031333533003133353478
:10658C000031333535003133353600313335370092
:10659C00313335370031333538003133353900314B
:1065AC00333630003133363100313336310031334C
:1065BC003632003133363300313336340031333632
:1065CC00350031333635003133363600313336371A
:1065DC000031333638003133363900313336390037
:1065EC00313337300031333731003133373200310A
:1065FC0033373300313337330031333734003133F1
:10660C0037350031333736003133373700313337D4
:10661C0038003133373800313337390031333830C3
:10662C0000313338310031333832003133383200F5
:10663C0031333833003133383400313338350031AD
:10664C003338360031333836003133383700313394
:10665C00383800313338390031333930003133397F
:10666C003000313339310031333932003133393381
:10667C00003133393400313339340031333935009A
:10668C003133393600313339370031333938003151
:10669C00333938003133393900313430300031344A
:1066AC003031003134303200313430330031343059
:1066BC00330031343034003134303500313430363D
:1066CC000031343037003134303700313430380059
:1066DC003134303900313431300031343131003122
:1066EC003431310031343132003134313300313412
:1066FC0031340031343135003134313500313431FD
:10670C0036003134313700313431380031343139DD
:10671C00003134313900313432300031343231000F
:10672C0031343232003134323300313432330031CF
:10673C0034323400313432350031343236003134B5
:10674C0032370031343237003134323800313432A0
:10675C003900313433300031343331003134333299
:10676C0000313433320031343333003134333400BC
:10677C003134333500313433360031343336003173
:10678C003433370031343338003134333900313459
:10679C00343000313434300031343431003134345D
:1067AC003200313434330031343434003134343445
:1067BC000031343435003134343600313434370060
:1067CC003134343800313434380031343439003118
:1067DC003435300031343531003134353200313418
:1067EC003532003134353300313435340031343501
:1067FC0035003134353600313435360031343537E7
:10680C00003134353800313435390031343630000C
:10681C0031343631003134363100313436320031D6
:10682C0034363300313436340031343635003134BB
:10683C0036350031343636003134363700313436A3
:10684C003800313436390031343639003134373090
:10685C0000313437310031343732003134373300C2
:10686C00313437330031343734003134373500317B
:10687C003437360031343737003134373700313460
:10688C00373800313437390031343830003134384E
:10689C00310031343831003134383200313438334E
:1068AC000031343834003134383500313438360066
:1068BC00313438360031343837003134383800311F
:1068CC003438390031343930003134393000313416
:1068DC003931003134393200313439330031343903
:1068EC0034003134393400313439350031343936EF
:1068FC00003134393700313439380031343938000B
:10690C0031343939003135303000313530310031E6
:10691C0035303200313530320031353033003135DD
:10692C0030340031353035003135303600313530CA
:10693C0036003135303700313530380031353039AB
:10694C0000313531300031353130003135313100E5
:10695C00313531320031353133003135313400319C
:10696C003531350031353135003135313600313581
:10697C00313700313531380031353139003135316D
:10698C003900313532300031353231003135323267
:10699C000031353233003135323300313532340089
:1069AC003135323500313532360031353237003140
:1069BC003532370031353238003135323900313526
:1069CC00333000313533310031353331003135332B
:1069DC003200313533330031353334003135333512
:1069EC00003135333500313533360031353337002E
:1069FC0031353338003135333900313533390031E5
:106A0C0035343000313534310031353432003135E4
:106A1C0034330031353434003135343400313534CD
:106A2C0035003135343600313534370031353438B2
:106A3C0000313534380031353439003135353000DA
:106A4C0031353531003135353200313535320031A3
:106A5C003535330031353534003135353500313588
:106A6C003536003135353600313535370031353571
:106A7C003800313535390031353630003135363066
:106A8C000031353631003135363200313536330090
:106A9C003135363400313536340031353635003148
:106AAC00353636003135363700313536380031352C
:106ABC00363900313536390031353730003135371C
:106ACC00310031353732003135373300313537331A
:106ADC000031353734003135373500313537360034
:106AEC0031353737003135373700313537380031EC
:106AFC0035373900313538300031353831003135E2
:106B0C0038310031353832003135383300313538D1
:106B1C0034003135383500313538350031353836BB
:106B2C0000313538370031353838003135383900D7
:106B3C0031353839003135393000313539310031A2
:106B4C00353932003135393300313539330031358F
:106B5C003934003135393500313539360031353974
:106B6C00370031353938003135393800313539395C
:106B7C0000313630300031363031003136303200B1
:106B8C00313630320031363033003136303400316A
:106B9C00363035003136303600313630360031364D
:106BAC00303700313630380031363039003136313B
:106BBC00300031363130003136313100313631323E
:106BCC000031363133003136313400313631340056
:106BDC00313631350031363136003136313700310E
:106BEC0036313800313631380031363139003136F2
:106BFC0032300031363231003136323200313632F9
:106C0C0033003136323300313632340031363235DE
:106C1C0000313632360031363237003136323700F9
:106C2C0031363238003136323900313633300031BA
:106C3C0036333100313633310031363332003136B0
:106C4C00333300313633340031363335003136339B
:106C5C003500313633360031363337003136333880
:106C6C0000313633390031363339003136343000A7
:106C7C003136343100313634320031363433003170
:106C8C003634330031363434003136343500313655
:106C9C00343600313634370031363437003136343F
:106CAC003800313634390031363530003136353133
:106CBC00003136353200313635320031363533005D
:106CCC003136353400313635350031363536003114
:106CDC0036353600313635370031363538003136F9
:106CEC0035390031363630003136363000313636F3
:106CFC0031003136363200313636330031363634E7
:106D0C000031363634003136363500313636360001
:106D1C0031363637003136363800313636380031B8
:106D2C0036363900313637300031363731003136AE
:106D3C00373200313637320031363733003136379F
:106D4C003400313637350031363736003136373688
:106D5C0000313637370031363738003136373900A5
:106D6C003136383000313638310031363831003177
:106D7C00363832003136383300313638340031365B
:106D8C003835003136383500313638360031363842
:106D9C003700313638380031363839003136383929
:106DAC000031363930003136393100313639320064
:106DBC00313639330031363933003136393400311C
:106DCC0036393500313639360031363937003136FF
:106DDC0039370031363938003136393900313730EE
:106DEC00300031373031003137303100313730320B
:106DFC000031373033003137303400313730350023
:106E0C0031373036003137303600313730370031DA
:106E1C0037303800313730390031373130003137C5
:106E2C0031300031373131003137313200313731C7
:106E3C0033003137313400313731340031373135AB
:106E4C0000313731360031373137003137313800C6
:106E5C003137313800313731390031373230003188
:106E6C00373231003137323200313732320031377C
:106E7C00323300313732340031373235003137326A
:106E8C00360031373236003137323700313732384D
:106E9C00003137323900313733300031373330007D
:106EAC00313733310031373332003137333300313E
:106EBC003733340031373335003137333500313720
:106ECC00333600313733370031373338003137330D
:106EDC003900313733390031373430003137343100
:106EEC00003137343200313734330031373433002A
:106EFC0031373434003137343500313734360031E2
:106F0C0037343700313734370031373438003137C4
:106F1C0034390031373530003137353100313735C0
:106F2C0031003137353200313735330031373534B4
:106F3C0000313735350031373535003137353600CE
:106F4C003137353700313735380031373539003185
:106F5C00373539003137363000313736310031377B
:106F6C00363200313736330031373634003137366C
:106F7C003400313736350031373636003137363755
:106F8C000031373638003137363800313736390072
:106F9C003137373000313737310031373732003144
:106FAC003737320031373733003137373400313728
:106FBC003735003137373600313737360031373710
:106FCC0037003137373800313737390031373830FF
:106FDC000031373830003137383100313738320032
:106FEC0031373833003137383400313738340031E9
:106FFC0037383500313738360031373837003137CC
:10700C0038380031373839003137383900313739B1
:10701C0030003137393100313739320031373933BB
:10702C0000313739330031373934003137393500D5
:10703C00313739360031373937003137393700318C
:10704C003739380031373939003138303000313880
:10705C003031003138303100313830320031383095
:10706C003300313830340031383035003138303578
:10707C000031383036003138303700313830380094
:10708C003138303900313830390031383130003155
:10709C003831310031383132003138313300313848
:1070AC003133003138313400313831350031383139
:1070BC003600313831370031383138003138313819
:1070CC00003138313900313832300031383231004A
:1070DC00313832320031383232003138323300310B
:1070EC0038323400313832350031383236003138EC
:1070FC0032360031383237003138323800313832DC
:10710C0039003138333000313833300031383331D5
:10711C0000313833320031383333003138333400F6
:10712C0031383334003138333500313833360031AF
:10713C003833370031383338003138333800313890
:10714C00333900313834300031383431003138348F
:10715C003200313834330031383433003138343480
:10716C00003138343500313834360031383437009A
:10717C003138343700313834380031383439003153
:10718C00383530003138353100313835310031384F
:10719C00353200313835330031383534003138353B
:1071AC003500313835350031383536003138353722
:1071BC00003138353800313835390031383539003F
:1071CC003138363000313836310031383632003112
:1071DC0038363300313836330031383634003138F4
:1071EC0036350031383636003138363700313836DE
:1071FC0037003138363800313836390031383730CD
:10720C0000313837310031383732003138373200FD
:10721C0031383733003138373400313837350031B5
:10722C003837360031383736003138373700313897
:10723C003738003138373900313838300031383888
:10724C003000313838310031383832003138383389
:10725C0000313838340031383834003138383500A2
:10726C003138383600313838370031383838003159
:10727C003838380031383839003138393000313845
:10728C00393100313839320031383932003138393E
:10729C00330031383934003138393500313839362A
:1072AC000031383936003138393700313839380047
:1072BC003138393900313930300031393031003121
:1072CC003930310031393032003139303300313915
:1072DC003034003139303500313930350031393006
:1072EC0036003139303700313930380031393039E6
:1072FC000031393039003139313000313931310018
:10730C0031393132003139313300313931330031D7
:10731C0039313400313931350031393136003139B8
:10732C0031370031393137003139313800313931A9
:10733C0039003139323000313932310031393231A2
:10734C0000313932320031393233003139323400C4
:10735C00313932350031393236003139323600317B
:10736C00393237003139323800313932390031395C
:10737C003330003139333000313933310031393366
:10738C00320031393333003139333400313933344D
:10739C000031393335003139333600313933370068
:1073AC003139333800313933380031393339003120
:1073BC00393430003139343100313934320031391B
:1073CC00343200313934330031393434003139340A
:1073DC0035003139343600313934360031393437EF
:1073EC000031393438003139343900313935300015
:1073FC0031393530003139353100313935320031E0
:10740C0039353300313935340031393535003139BE
:10741C0035350031393536003139353700313935AC
:10742C003800313935390031393539003139363098
:10743C0000313936310031393632003139363300CA
:10744C003139363300313936340031393635003183
:10745C003936360031393637003139363700313963
:10746C003638003139363900313937300031393757
:10747C003100313937310031393732003139373356
:10748C00003139373400313937350031393735006F
:10749C003139373600313937370031393738003127
:1074AC003937390031393830003139383000313919
:1074BC00383100313938320031393833003139380C
:1074CC0034003139383400313938350031393836F7
:1074DC000031393837003139383800313938380013
:1074EC0031393839003139393000313939310031DD
:1074FC0039393200313939320031393933003139C7
:10750C0039340031393935003139393600313939AE
:10751C003600313939370031393938003139393998
:10752C000032303030003230303000323030310008
:10753C0032303032003230303300323030340032BE
:10754C0030303400323030350032303036003230AA
:10755C003037003230303800323030390032303091
:10756C00390032303130003230313100323031328A
:10757C0000323031330032303133003230313400AC
:10758C003230313500323031360032303137003262
:10759C00303137003230313800323031390032304E
:1075AC00323000323032310032303231003230324F
:1075BC003200323032330032303234003230323535
:1075CC000032303235003230323600323032370051
:1075DC003230323800323032390032303239003207
:1075EC00303330003230333100323033320032300D
:1075FC0033330032303333003230333400323033F3
:10760C0035003230333600323033370032303338D5
:10761C0000323033380032303339003230343000FD
:10762C0032303431003230343200323034320032C5
:10763C0030343300323034340032303435003230B0
:10764C003436003230343600323034370032303495
:10765C003800323034390032303530003230353089
:10766C0000323035310032303532003230353300B3
:10767C00323035340032303534003230353500326A
:10768C003035360032303537003230353800323054
:10769C003538003230353900323036300032303641
:1076AC00310032303632003230363300323036333D
:1076BC000032303634003230363500323036360057
:1076CC00323036370032303637003230363800320E
:1076DC00303639003230373000323037310032300A
:1076EC0037310032303732003230373300323037F6
:1076FC0034003230373500323037350032303736DF
:10770C0000323037370032303738003230373900FA
:10771C0032303739003230383000323038310032C4
:10772C0030383200323038330032303833003230B7
:10773C003834003230383500323038360032303898
:10774C003700323038370032303838003230383980
:10775C0000323039300032303931003230393200B9
:10776C003230393200323039330032303934003271
:10777C00303935003230393600323039360032305B
:10778C003937003230393800323039390032313043
:10779C003000323130300032313031003231303261
:1077AC000032313033003231303400323130340079
:1077BC003231303500323130360032313037003230
:1077CC00313038003231303800323130390032311A
:1077DC00313000323131310032313132003231311D
:1077EC003200323131330032313134003231313503
:1077FC00003231313600323131360032313137001E
:10780C0032313138003231313900323132300032DC
:10781C0031323100323132310032313232003231D8
:10782C0032330032313234003231323500323132BF
:10783C0035003231323600323132370032313238A3
:10784C0000323132390032313239003231333000CA
:10785C003231333100323133320032313333003292
:10786C00313333003231333400323133350032317D
:10787C003336003231333700323133370032313363
:10788C003800323133390032313430003231343156
:10789C000032313431003231343200323134330081
:1078AC003231343400323134350032313436003236
:1078BC003134360032313437003231343800323121
:1078CC003439003231353000323135300032313517
:1078DC00310032313532003231353300323135340A
:1078EC000032313534003231353500323135360025
:1078FC0032313537003231353800323135380032DB
:10790C0031353900323136300032313631003231D6
:10791C0036320032313632003231363300323136C3
:10792C0034003231363500323136360032313636AB
:10793C0000323136370032313638003231363900C8
:10794C00323137300032313730003231373100329A
:10795C003137320032313733003231373400323183
:10796C003735003231373500323137360032313766
:10797C00370032313738003231373900323137394C
:10798C000032313830003231383100323138320087
:10799C00323138330032313833003231383400323E
:1079AC003138350032313836003231383700323127
:1079BC003837003231383800323138390032313909
:1079CC003000323139310032313931003231393213
:1079DC00003231393300323139340032313935002B
:1079EC0032313935003231393600323139370032E3
:1079FC0031393800323139390032323030003232DC
:107A0C0030300032323031003232303200323230EB
:107A1C0033003232303400323230340032323035CE
:107A2C0000323230360032323037003232303800E9
:107A3C0032323038003232303900323231300032AA
:107A4C0032313100323231320032323132003232A4
:107A5C00313300323231340032323135003232318E
:107A6C003600323231360032323137003232313870
:107A7C0000323231390032323230003232323000A0
:107A8C003232323100323232320032323233003260
:107A9C003232340032323234003232323500323249
:107AAC003236003232323700323232380032323231
:107ABC003900323232390032323330003232333123
:107ACC00003232333200323233330032323333004D
:107ADC003232333400323233350032323336003204
:107AEC0032333700323233370032323338003232ED
:107AFC0033390032323430003232343100323234E5
:107B0C0031003232343200323234330032323434D7
:107B1C0000323234350032323435003232343600F1
:107B2C0032323437003232343800323234390032A7
:107B3C0032343900323235300032323531003232A3
:107B4C003532003232353300323235330032323591
:107B5C003400323235350032323536003232353778
:107B6C000032323538003232353800323235390095
:107B7C003232363000323236310032323632003266
:107B8C003236320032323633003232363400323250
:107B9C003635003232363600323236360032323634
:107BAC003700323236380032323639003232373022
:107BBC000032323730003232373100323237320055
:107BCC00323237330032323734003232373400320B
:107BDC0032373500323237360032323737003232F4
:107BEC0037380032323738003232373900323238D7
:107BFC0030003232383100323238320032323833DF
:107C0C0000323238330032323834003232383500F8
:107C1C0032323836003232383700323238370032AE
:107C2C0032383800323238390032323930003232A0
:107C3C003931003232393100323239320032323994
:107C4C003300323239340032323935003232393580
:107C5C00003232393600323239370032323938009C
:107C6C003232393900323239390032333030003265
:107C7C003330310032333032003233303300323370
:107C8C00303300323330340032333035003233305D
:107C9C00360032333037003233303700323330383D
:107CAC00003233303900323331300032333131006D
:107CBC00323331320032333132003233313300322D
:107CCC003331340032333135003233313600323314
:107CDC003136003233313700323331380032333100
:107CEC0039003233323000323332300032333231F9
:107CFC00003233323200323332330032333234001A
:107D0C0032333234003233323500323332360032D1
:107D1C0033323700323332380032333238003233B8
:107D2C0032390032333330003233333100323333B3
:107D3C0032003233333200323333330032333334A4
:107D4C0000323333350032333336003233333600BE
:107D5C003233333700323333380032333339003275
:107D6C003334300032333431003233343100323377
:107D7C00343200323334330032333434003233345F
:107D8C003500323334350032333436003233343745
:107D9C000032333438003233343900323334390062
:107DAC003233353000323335310032333532003234
:107DBC00333533003233353300323335340032331C
:107DCC003535003233353600323335370032333502
:107DDC0037003233353800323335390032333630F0
:107DEC000032333631003233363100323336320022
:107DFC0032333633003233363400323336350032D8
:107E0C0033363600323336360032333637003233BF
:107E1C0036380032333639003233373000323337AC
:107E2C0030003233373100323337320032333733AC
:107E3C0000323337340032333734003233373500C5
:107E4C00323337360032333737003233373800327B
:107E5C00333738003233373900323338300032336D
:107E6C003831003233383200323338320032333862
:107E7C00330032333834003233383500323338364D
:107E8C00003233383600323338370032333838006A
:107E9C003233383900323339300032333930003232
:107EAC003339310032333932003233393300323323
:107EBC003934003233393500323339350032333905
:107ECC0036003233393700323339380032333939EE
:107EDC000032333939003234303000323430310032
:107EEC0032343032003234303300323430330032FA
:107EFC0034303400323430350032343036003234E1
:107F0C0030370032343037003234303800323430CD
:107F1C0039003234313000323431310032343131C5
:107F2C0000323431320032343133003234313400E7
:107F3C00323431350032343135003234313600329E
:107F4C003431370032343138003234313900323484
:107F5C00323000323432300032343231003234328A
:107F6C003200323432330032343234003234323470
:107F7C00003234323500323432360032343237008B
:107F8C003234323800323432380032343239003242
:107F9C003433300032343331003234333200323443
:107FAC00333200323433330032343334003234332E
:107FBC003500323433360032343336003234333712
:107FCC000032343338003234333900323434300038
:107FDC003234343000323434310032343432003202
:107FEC0034343300323434340032343434003234E8
:107FFC0034350032343436003234343700323434D1
:10800C0038003234343900323434390032343530BB
:10801C0000323435310032343532003234353300ED
:10802C0032343533003234353400323435350032A5
:10803C00343536003234353700323435370032348B
:10804C00353800323435390032343630003234367B
:10805C003100323436310032343632003234363379
:10806C000032343634003234363500323436350092
:10807C003234363600323436370032343638003249
:10808C003436390032343639003234373000323439
:10809C003731003234373200323437330032343730
:1080AC00330032343734003234373500323437361B
:1080BC000032343737003234373800323437380036
:1080CC0032343739003234383000323438310032FF
:1080DC0034383200323438320032343833003234EF
:1080EC0038340032343835003234383600323438D3
:1080FC0036003234383700323438380032343839BC
:10810C0000323439300032343930003234393100F5
:10811C0032343932003234393300323439340032AB
:10812C003439340032343935003234393600323493
:10813C003937003234393800323439380032343976
:10814C003900323530300032353031003235303292
:10815C0000323530330032353033003235303400B4
:10816C00323530350032353036003235303700326A
:10817C003530370032353038003235303900323551
:10818C003130003235313100323531310032353158
:10819C00320032353133003235313400323531353D
:1081AC000032353135003235313600323531370059
:1081BC00323531380032353139003235313900320F
:1081CC003532300032353231003235323200323510
:1081DC0032330032353233003235323400323532FC
:1081EC0035003235323600323532370032353237DF
:1081FC000032353238003235323900323533300006
:10820C0032353331003235333200323533320032CD
:10821C0035333300323533340032353335003235B3
:10822C00333600323533360032353337003235339E
:10823C003800323533390032353430003235343091
:10824C0000323534310032353432003235343300BB
:10825C003235343400323534340032353435003272
:10826C003534360032353437003235343800323557
:10827C00343800323534390032353530003235354A
:10828C003100323535320032353532003235353346
:10829C00003235353400323535350032353536005F
:1082AC003235353600323535370032353538003217
:1082BC00353539003235363000323536310032350D
:1082CC0036310032353632003235363300323536FF
:1082DC0034003235363500323536350032353636E7
:1082EC000032353637003235363800323536390003
:1082FC0032353639003235373000323537310032CD
:10830C0035373200323537330032353733003235BA
:10831C0037340032353735003235373600323537A1
:10832C003700323537370032353738003235373988
:10833C0000323538300032353831003235383100C2
:10834C003235383200323538330032353834003279
:10835C00353835003235383600323538360032355E
:10836C003837003235383800323538390032353943
:10837C00300032353930003235393100323539324E
:10838C000032353933003235393400323539340066
:10839C00323539350032353936003235393700321D
:1083AC003539380032353938003235393900323602
:1083BC003030003236303100323630320032363026
:1083CC00320032363033003236303400323630350B
:1083DC000032363036003236303600323630370026
:1083EC0032363038003236303900323631300032E5
:1083FC0036313000323631310032363132003236DD
:10840C0031330032363134003236313500323631C8
:10841C0035003236313600323631370032363138AB
:10842C0000323631390032363139003236323000D2
:10843C00323632310032363232003236323300329A
:10844C003632330032363234003236323500323680
:10845C00323600323632370032363237003236326C
:10846C00380032363239003236333000323633315E
:10847C000032363331003236333200323633330089
:10848C00323633340032363335003236333500323F
:10849C003633360032363337003236333800323624
:1084AC003339003236343000323634300032363420
:1084BC003100323634320032363433003236343412
:1084CC00003236343400323634350032363436002D
:1084DC0032363437003236343800323634380032E3
:1084EC0036343900323635300032363531003236DA
:1084FC0035320032363532003236353300323635CD
:10850C0034003236353500323635360032363536B3
:10851C0000323635370032363538003236353900D0
:10852C0032363630003236363000323636310032A2
:10853C003636320032363633003236363400323686
:10854C003634003236363500323636360032363670
:10855C003700323636380032363639003236363954
:10856C00003236373000323637310032363732008F
:10857C003236373300323637330032363734003246
:10858C00363735003236373600323637370032362A
:10859C003737003236373800323637390032363812
:1085AC00300032363831003236383100323638321B
:1085BC000032363833003236383400323638350033
:1085CC0032363835003236383600323638370032EB
:1085DC0036383800323638390032363839003236CF
:1085EC0039300032363931003236393200323639D0
:1085FC0033003236393300323639340032363935BD
:10860C0000323639360032363937003236393800D6
:10861C0032363938003236393900323730300032A0
:10862C0037303100323730320032373032003237A7
:10863C003033003237303400323730350032373097
:10864C003600323730360032373037003237303878
:10865C0000323730390032373130003237313000A8
:10866C003237313100323731320032373133003268
:10867C00373134003237313400323731350032374C
:10868C00313600323731370032373138003237313A
:10869C00380032373139003237323000323732312C
:1086AC000032373232003237323300323732330055
:1086BC00323732340032373235003237323600320C
:1086CC0037323700323732370032373238003237F0
:1086DC0032390032373330003237333100323733EE
:1086EC0031003237333200323733330032373334E0
:1086FC0000323733350032373335003237333600FA
:10870C0032373337003237333800323733390032AF
:10871C0037333900323734300032373431003237A6
:10872C00343200323734330032373433003237349A
:10873C003400323734350032373436003237343780
:10874C00003237343700323734380032373439009E
:10875C00323735300032373531003237353200326E
:10876C003735320032373533003237353400323753
:10877C00353500323735360032373536003237353D
:10878C00370032373538003237353900323736302A
:10879C00003237363000323736310032373632005D
:1087AC003237363300323736340032373634003213
:1087BC0037363500323736360032373637003237F7
:1087CC0036380032373638003237363900323737E0
:1087DC0030003237373100323737320032373732E8
:1087EC000032373733003237373400323737350001
:1087FC0032373736003237373600323737370032B8
:10880C0037373800323737390032373830003237A3
:10881C00383100323738310032373832003237389D
:10882C003300323738340032373835003237383588
:10883C0000323738360032373837003237383800A4
:10884C003237383900323738390032373930003264
:10885C003739310032373932003237393300323759
:10886C003933003237393400323739350032373941
:10887C00360032373937003237393700323739382A
:10888C00003237393900323830300032383031006C
:10889C003238303100323830320032383033003236
:1088AC003830340032383035003238303600323817
:1088BC003036003238303700323830380032383009
:1088CC003900323831300032383130003238313101
:1088DC000032383132003238313300323831340022
:1088EC0032383134003238313500323831360032DA
:1088FC0038313700323831380032383138003238BC
:10890C0031390032383230003238323100323832BC
:10891C0032003238323200323832330032383234AC
:10892C0000323832350032383236003238323600C6
:10893C00323832370032383238003238323900327D
:10894C00383330003238333000323833310032387B
:10895C003332003238333300323833340032383368
:10896C00350032383335003238333600323833374D
:10897C00003238333800323833390032383339006A
:10898C00323834300032383431003238343200323C
:10899C00383433003238343300323834340032381F
:1089AC00343500323834360032383437003238340B
:1089BC0037003238343800323834390032383530F8
:1089CC00003238353100323835310032383532002A
:1089DC0032383533003238353400323835350032E0
:1089EC0038353500323835360032383537003238C4
:1089FC0035380032383539003238353900323836AE
:108A0C0030003238363100323836320032383633B4
:108A1C0000323836340032383634003238363500CD
:108A2C003238363600323836370032383638003283
:108A3C003836380032383639003238373000323870
:108A4C00373100323837320032383732003238376B
:108A5C003300323837340032383735003238373655
:108A6C000032383736003238373700323837380072
:108A7C00323837390032383830003238383000323A
:108A8C003838310032383832003238383300323826
:108A9C00383400323838340032383835003238380F
:108AAC0036003238383700323838380032383839F6
:108ABC000032383839003238393000323839310028
:108ACC0032383932003238393300323839330032E7
