:020000040800F2
:1030000000500020654C0008F94B0008FB4B0008FD
:10301000FD4B0008FF4B0008014C000800000000B9
:10302000000000000000000000000000034C000849
:10303000054C000800000000074C0008094C00087F
:10304000AD4C0008AD4C0008AD4C0008AD4C00087C
:10305000AD4C0008AD4C0008AD4C0008AD4C00086C
:10306000AD4C0008AD4C0008AD4C0008AD4C00085C
:10307000AD4C0008AD4C0008AD4C0008AD4C00084C
:10308000AD4C0008AD4C0008AD4C0008AD4C00083C
:10309000AD4C0008AD4C0008AD4C0008AD4C00082C
:1030A000AD4C0008AD4C0008AD4C0008AD4C00081C
:1030B000AD4C0008AD4C0008AD4C0008AD4C00080C
:1030C000AD4C0008AD4C0008AD4C0008AD4C0008FC
:1030D000AD4C0008AD4C0008AD4C0008AD4C0008EC
:1030E000AD4C0008AD4C0008AD4C000800000000DD
:1030F00000000000000000000000000000000000D0
:0C31000000000000000000005FF808F173
:1031100010B5054C237833B9044B13B10448AFF311
:1031200000800123237010BD680000200000000013
:103130006C55000808B5034B1BB103490348AFF3B6
:10314000008008BD000000006C0000206C550008E5
:1031500081F0004102E000BF83F0004330B54FEA48
:1031600041044FEA430594EA050F08BF90EA020FB5
:103170001FBF54EA000C55EA020C7FEA645C7FEA48
:10318000655C00F0E2804FEA5454D4EB5555B8BF6B
:103190006D420CDD2C4480EA020281EA030382EADC
:1031A000000083EA010180EA020281EA0303362D6E
:1031B00088BF30BD11F0004F4FEA01314FF4801C41
:1031C0004CEA113102D0404261EB410113F0004F53
:1031D0004FEA03334CEA133302D0524263EB43030A
:1031E00094EA050F00F0A780A4F10104D5F1200EA8
:1031F0000DDB02FA0EFC22FA05F2801841F1000103
:1032000003FA0EF2801843FA05F359410EE0A5F1D6
:1032100020050EF1200E012A03FA0EFC28BF4CF007
:10322000020C43FA05F3C01851EBE37101F00045BD
:1032300007D54FF0000EDCF1000C7EEB00006EEBCA
:103240000101B1F5801F1BD3B1F5001F0CD3490854
:103250005FEA30004FEA3C0C04F101044FEA4452AB
:1032600012F5800F80F09A80BCF1004F08BF5FEA32
:10327000500C50F1000041EB045141EA050130BD12
:103280005FEA4C0C404141EB010111F4801FA4F1B5
:103290000104E9D191F0000F04BF01460020B1FA0A
:1032A00081F308BF2033A3F10B03B3F120020CDA42
:1032B0000C3208DD02F1140CC2F10C0201FA0CF020
:1032C00021FA02F10CE002F11402D8BFC2F1200C85
:1032D00001FA02F120FA0CFCDCBF41EA0C0190403B
:1032E000E41AA2BF01EB0451294330BD6FEA040484
:1032F0001F3C1CDA0C340EDC04F11404C4F120026F
:1033000020FA04F001FA02F340EA030021FA04F380
:1033100045EA030130BDC4F10C04C4F1200220FAD7
:1033200002F001FA04F340EA0300294630BD21FA15
:1033300004F0294630BD94F0000F83F4801306BFDB
:1033400081F480110134013D4EE77FEA645C18BFCF
:103350007FEA655C29D094EA050F08BF90EA020F66
:1033600005D054EA000C04BF1946104630BD91EA5E
:10337000030F1EBF0021002030BD5FEA545C05D161
:103380004000494128BF41F0004130BD14F58004A0
:103390003CBF01F5801130BD01F0004545F0FE4114
:1033A00041F470014FF0000030BD7FEA645C1ABF49
:1033B000194610467FEA655C1CBF0B46024650EA80
:1033C000013406BF52EA033591EA030F41F40021AC
:1033D00030BD00BF90F0000F04BF0021704730B532
:1033E0004FF4806404F132044FF000054FF0000107
:1033F00050E700BF90F0000F04BF0021704730B5C8
:103400004FF4806404F1320410F0004548BF40429C
:103410004FF000013EE700BF42004FEAE2014FEAF1
:1034200031014FEA02701FBF12F07F4393F07F4FCC
:1034300081F06051704792F0000F14BF93F07F4FFE
:10344000704730B54FF4607401F0004521F0004141
:1034500020E700BF50EA010208BF704730B54FF0C7
:1034600000050AE050EA010208BF704730B511F0CC
:10347000004502D5404261EB41014FF4806404F104
:1034800032045FEA915C3FF4DCAE4FF003025FEA86
:10349000DC0C18BF03325FEADC0C18BF033202EB0E
:1034A000DC02C2F1200300FA03FC20FA02F001FA68
:1034B00003FE40EA0E0021FA02F11444C1E600BF07
:1034C00070B54FF0FF0C4CF4E06C1CEA11541DBFBA
:1034D0001CEA135594EA0C0F95EA0C0F00F0DEF885
:1034E0002C4481EA030621EA4C5123EA4C5350EA6A
:1034F000013518BF52EA033541F4801143F48013BB
:1035000038D0A0FB02CE4FF00005E1FB02E506F04B
:103510000042E0FB03E54FF00006E1FB03569CF0A0
:10352000000F18BF4EF0010EA4F1FF04B6F5007FA6
:1035300064F5407404D25FEA4E0E6D4146EB060618
:1035400042EAC62141EA55514FEAC52040EA5E50A1
:103550004FEACE2EB4F1FD0C88BFBCF5E06F1ED84B
:10356000BEF1004F08BF5FEA500E50F1000041EB82
:10357000045170BD06F0004646EA010140EA02002F
:1035800081EA0301B4EB5C04C2BFD4EB0C0541EA51
:10359000045170BD41F480114FF0000E013C00F366
:1035A000AB8014F1360FDEBF002001F0004170BD8A
:1035B000C4F10004203C35DA0C341BDC04F11404A3
:1035C000C4F1200500FA05F320FA04F001FA05F22F
:1035D00040EA020001F0004221F0004110EBD370FC
:1035E00021FA04F642EB06015EEA430E08BF20EA28
:1035F000D37070BDC4F10C04C4F1200500FA04F3CB
:1036000020FA05F001FA04F240EA020001F000415C
:1036100010EBD37041F100015EEA430E08BF20EACF
:10362000D37070BDC4F1200500FA05F24EEA020E17
:1036300020FA04F301FA05F243EA020321FA04F046
:1036400001F0004121FA04F220EA020000EBD370FD
:103650005EEA430E08BF20EAD37070BD94F0000FFD
:103660000FD101F00046400041EB010111F4801F31
:1036700008BF013CF7D041EA060195F0000F18BFE2
:10368000704703F00046520043EB030313F4801F1E
:1036900008BF013DF7D043EA0603704794EA0C0FD8
:1036A0000CEA135518BF95EA0C0F0CD050EA4106EE
:1036B00018BF52EA4306D1D181EA030101F000416B
:1036C0004FF0000070BD50EA410606BF1046194693
:1036D00052EA430619D094EA0C0F02D150EA01369F
:1036E00013D195EA0C0F05D152EA03361CBF1046E0
:1036F00019460AD181EA030101F0004141F0FE417F
:1037000041F470014FF0000070BD41F0FE4141F402
:10371000780170BD70B54FF0FF0C4CF4E06C1CEA02
:1037200011541DBF1CEA135594EA0C0F95EA0C0FB7
:1037300000F0A7F8A4EB050481EA030E52EA033572
:103740004FEA013100F088804FEA03334FF0805593
:1037500045EA131343EA12634FEA022245EA1115C0
:1037600045EA10654FEA00260EF000419D4208BF71
:10377000964244F1FD0404F5407402D25B084FEA1E
:103780003202B61A65EB03055B084FEA32024FF4CA
:1037900080104FF4002CB6EB020E75EB030E22BF27
:1037A000B61A754640EA0C005B084FEA3202B6EBE7
:1037B000020E75EB030E22BFB61A754640EA5C0096
:1037C0005B084FEA3202B6EB020E75EB030E22BF26
:1037D000B61A754640EA9C005B084FEA3202B6EB27
:1037E000020E75EB030E22BFB61A754640EADC00E6
:1037F00055EA060E18D04FEA051545EA16754FEA48
:1038000006164FEAC30343EA52734FEAC2025FEA65
:103810001C1CC0D111F4801F0BD141EA00014FF0F4
:1038200000004FF0004CB6E711F4801F04BF0143C5
:103830000020B4F1FD0C88BFBCF5E06F3FF6AFAEE1
:10384000B5EB030C04BFB6EB020C5FEA500C50F171
:10385000000041EB045170BD0EF0004E4EEA1131F4
:1038600014EB5C04C2BFD4EB0C0541EA045170BDFB
:1038700041F480114FF0000E013C90E645EA060E3F
:103880008DE60CEA135594EA0C0F08BF95EA0C0F6D
:103890003FF43BAF94EA0C0F0AD150EA01347FF4B5
:1038A00034AF95EA0C0F7FF425AF104619462CE78C
:1038B00095EA0C0F06D152EA03353FF4FDAE1046EF
:1038C000194622E750EA410618BF52EA43067FF440
:1038D000C5AE50EA41047FF40DAF52EA43057FF4D0
:1038E000EBAE12E74FEA410212F5001215D211D5E4
:1038F0006FF47873B3EB625212D94FEAC12343F0ED
:10390000004343EA505311F0004F23FA02F018BF6E
:10391000404270474FF00000704750EA013005D137
:1039200011F0004008BF6FF0004070474FF00000FA
:10393000704700BF084B10B5044618684FF47A73FF
:10394000B0FBF3F000F034FA002221464FF0FF30D4
:1039500000F0FAF9002010BD00000020074A08B569
:103960001368032043F01003136000F0DBF900201C
:10397000FFF7E0FF01F0ACF8002008BD0020024096
:10398000024A136801331360704700BF90000020A3
:10399000014B1868704700BF900000200368D86C86
:1039A00070470000002373B5019390F82430012B79
:1039B00074D001234D6880F82430062D02684FEA48
:1039C00085030C6825D82B441F25566B053B9D406D
:1039D00026EA050504FA03F32B435363092C4FEA47
:1039E00044038D682FD907262344D1681E3B9E408F
:1039F00021EA060105FA03F30B43D360A4F1100397
:103A0000012B2BD90023002280F82420184602B075
:103A100070BD0C2D0BD82B441F25166B233B9D40EE
:103A200026EA050504FA03F32B431363D6E72B4478
:103A30001F25D66A413B9D4026EA050504FA03F39B
:103A40002B43D362CAE70726116923449E4021EA2B
:103A5000060105FA03F30B431361CFE7104B9A42BB
:103A600016D193681B02CDD49368102C43F4000345
:103A70009360C7D10B4B0C4A1B68B3FBF2F20A23CD
:103A800053430193019B002BBCD0019B013BF8E702
:103A9000836A43F0200383620123B4E70223B5E77E
:103AA000002401400000002040420F00002373B5B5
:103AB0000193036804469A68D20702D5002002B039
:103AC00070BD9A6842F001029A60124B124A1B685C
:103AD000B3FBF2F30193019BC3B9FFF759FF06460D
:103AE00023689D6815F00105E8D1FFF751FF801BA1
:103AF0000228F5D9A36A84F8245043F01003A36286
:103B0000E36A012043F00103E362D8E7019B013B34
:103B1000E0E700BF0000002040420F0090F8243092
:103B200010B5012B044654D0012380F82430FFF750
:103B3000BDFF002849D1A36A274A23F4407323F02C
:103B4000010343F48073A3622368934204D12349A1
:103B50004A6812F4702F2ED1A26A22F48012A26257
:103B60005A68520541BFA26A22F4405242F4805280
:103B7000A262A26A12F480521CBFE26A22F006021C
:103B8000E262002284F824206FF002021A609A6830
:103B900002F46022B2F5602F13D10F4A934205D18F
:103BA000A2F58062526812F4702F0AD19A6842F42A
:103BB000A0029A6010BDA26A42F48012A2624A6812
:103BC000CFE79A6842F48012F3E7002384F82430A8
:103BD00010BD022010BD00BF00280140002401409C
:103BE00038B5036804469A68D20701D4002038BD6E
:103BF0009A6822F001029A60FFF7CAFE0546236820
:103C00009B68DB07F2D5FFF7C3FE401B0228F6D9FD
:103C1000A36A012043F01003A362E36A43F00103A7
:103C2000E36238BD70B50446002871D0836A23B9B9
:103C3000C36280F8243000F093FF2046FFF7D0FFE6
:103C4000A36A13F0100FA36A64D1002862D1E1695E
:103C500023F48853626823F0020343F002030A430B
:103C6000A168A362E368B1F5807F42EA430238D0DD
:103C7000012914BF06464FF480766569012D07D1EE
:103C8000002B30D1A369013B46EA433545F4006679
:103C90002368B1F5807F5D6825F4694545EA06052E
:103CA0005D609E681D4D05EA060545EA02059D60BA
:103CB00001D0012920D1216901390905DD6A25F4E6
:103CC00070052943D9629968154B0B409A4215D16A
:103CD0000023E362A36A23F0030343F00103A3621A
:103CE00070BD0E46C9E7A36A43F02003A362E36AEE
:103CF00043F00103E362CBE70021DFE7A36A23F08F
:103D0000120343F01003A362E36A43F00103E3628A
:103D1000012070BD43F01003A362F9E7FDF7E1FF56
:103D2000FE0E1FFF074A0002D36800F4E06023F490
:103D3000E0631B041B0C43F0BF6343F400330343F5
:103D4000D360704700ED00E0174B30B5DC68C4F37A
:103D50000224C4F10703251D042B28BF0423062DCC
:103D60004FF0010598BF002405FA03F303F1FF3378
:103D700088BF033C1940A14005FA04F4013C2240ED
:103D8000002842EA01024FEA0212AFBF00F1604090
:103D9000064B00F00F00D2B2A5BFD2B200F56140D1
:103DA0001A5480F8002330BD00ED00E014ED00E06F
:103DB0000138B0F1807F0AD2F021064B064A5860E4
:103DC00082F823100020072298601A6070470120B3
:103DD000704700BF10E000E000ED00E0044B042855
:103DE0001A680CBF42F0040222F004021A60704705
:103DF00010E000E0704708B5FFF7FCFF08BD0000C9
:103E00002DE9F74F00221646654BDFF8A4E1DFF8F5
:103E1000A4C14FF001080C6808FA06F808EA040487
:103E2000A0457FD14D68122D00F0AF8000F2888050
:103E3000022D00F0A7807CD8002D00F08E80012D8F
:103E400000F09E804FF00F09FF2C93BF824606F1D1
:103E50008045083DD0F800B092BFB500D0F804B05E
:103E6000AD0009FA05F82BEA080802FA05F588BF43
:103E700000F1040A48EA0505CAF80050D1F804A088
:103E80001AF0805F4ED0474D464FAD6926F00308CB
:103E900045F00105BD61BD6908F1804805F00105E7
:103EA000019508F5803806F0030B019D4FEA8B0B56
:103EB000D8F8085009FA0BF925EA09093A4DA84241
:103EC00068D005F58065A84266D005F58065A842F2
:103ED00064D005F58065A8420CBF0325042505FACA
:103EE0000BF545EA0905C8F808501D681AF4803F2B
:103EF00014BF2543A5431D605D681AF4003F14BF3D
:103F00002543A5435D609D681AF4801F14BF2543B7
:103F1000A5439D60DD681AF4001F14BF2C4325EAF9
:103F20000404DC600136102E7FF473AF03B0BDE8EB
:103F3000F08F032D22D0112D84D1CA68043281E77D
:103F40001A4FBD4209D012D8DFF86C904D4504D00D
:103F500009F580394D457FF475AF8A68C2B1012AF1
:103F60000CBFC0F81080C0F8148008226AE77545BD
:103F7000F3D06545F1D0DFF84490EBE7002261E72C
:103F8000CA685FE7CA6808325CE7CA680C3259E75A
:103F9000042257E70025A2E70125A0E702259EE7B6
:103FA0000004014000100240000801400000211000
:103FB000000031100000321000001110000022102B
:103FC0000AB1016170470904FBE7000003682DE9AD
:103FD000F341DB07054610D42B689F075ED42B689E
:103FE000190700F195802B685A0700F1BF80EA6934
:103FF000002A40F02D81002014E0904C636803F00B
:104000000C03042B07D0636803F00C03082B0CD1BE
:104010006368DE0309D523689C03DDD56B68002B3C
:10402000DAD1012002B0BDE8F0816B68B3F5803FC2
:1040300010D1236843F480332360FFF7A9FC0646C0
:1040400023689803C8D4FFF7A3FC801B6428F7D922
:104050000320E7E79BB9236823F4803323602368B8
:1040600023F480232360FFF793FC0646236899031B
:10407000B2D5FFF78DFC801B6428F7D9E8E7B3F5CC
:10408000A02F236803D143F480232360D1E723F4D6
:1040900080332360236823F48023CDE7674C636873
:1040A00013F00C0F07D0636803F00C03082B10D13A
:1040B0006368DA030DD423689B0702D52B69012BB3
:1040C000AFD123686A6923F0F80343EAC20323608F
:1040D00085E72A695A4B6AB101221A60FFF758FC3A
:1040E000064623689F07ECD4FFF752FC801B02288A
:1040F000F7D9ADE71A60FFF74BFC0646236898072F
:104100007FF56DAFFFF744FC801B0228F6D99FE7CF
:10411000AA694A4C4B4BDAB101221A60FFF738FC0E
:104120000646636A9B070DD54FF4FA52464B1B684F
:10413000B3FBF2F3019300BF019B5A1E0192002BC7
:10414000F9D150E7FFF724FC801B0228E9D97FE76B
:104150001A60FFF71DFC0646636A9F077FF543AFB1
:10416000FFF716FC801B0228F6D971E7334CE36990
:10417000D80024D40127E36943F08053E361E36965
:1041800003F080530093009B304E3368D90518D557
:10419000EB68012B26D1236A43F001032362FFF76A
:1041A000F7FB41F288368046236A9B073FD5002FF4
:1041B0003FF41DAFE36923F08053E36117E7002765
:1041C000E2E7336843F480733360FFF7E1FB804636
:1041D0003368DA05DCD4FFF7DBFBA0EB08006428CA
:1041E000F6D935E7ABB9236A41F2883823F00103E9
:1041F0002362236A23F004032362FFF7C9FB064608
:10420000236A9807D3D5FFF7C3FB801B4045F7D936
:104210001EE7052B236A03D143F004032362BAE7A8
:1042200023F001032362236A23F00403B6E7FFF7B8
:10423000AFFBA0EB0800B042B6D909E7001002407E
:104240000000424280044242000000200070004012
:10425000224C636803F00C03082B3FF4E2AE00230A
:104260001F4E022A33602BD1FFF792FB07462368CB
:1042700099011FD42B6AB3F5803F05D16268A96804
:1042800022F400320A436260696A62680B4322F4D6
:1042900074121343636001233360FFF779FB054613
:1042A00023689A013FF5A7AEFFF772FB401B022877
:1042B000F6D9CDE6FFF76CFBC01B0228D7D9C7E6BD
:1042C000FFF766FB054623689B017FF594AEFFF779
:1042D0005FFB401B0228F6D9BAE600BF001002407F
:1042E0006000424230B51A4B87B002AC03F11005B2
:1042F000224618685968083303C2AB421446F7D106
:1043000001238DF80430022312498DF805304B68E3
:1043100003F00C02082A18D1C3F38342DB0348BF21
:104320004B6806A8024448BFC3F3404312F8100C80
:1043300041BF06AA9B1813F8142C074B54BF074B18
:10434000B3FBF2F3584307B030BD0348FBE700BFAF
:10435000845500080010024000127A0000093D0058
:104360004D4A2DE9F0411368054603F007038B42DF
:104370000E4628D32A68910732D4D20738D4464A49
:10438000136803F007039E4273D32A68434C12F06C
:10439000040F79D1130706D563682A6923F46053A3
:1043A00043EAC2036360FFF79DFF63683C4AC3F3BF
:1043B0000313D35CD8403B4B18600020FFF7BAFAD8
:1043C0000020BDE8F081136823F007030B4313605E
:1043D000136803F007039942CCD00120BDE8F081B7
:1043E0002E49A8684B6823F0F00303434B60C4E7F1
:1043F0006A682A4C012A23681CD113F4003FECD0D0
:10440000636841F2883823F0030313436360FFF7C6
:10441000BFFA6B680746012B14D1636803F00C03E5
:10442000042BACD0FFF7B4FAC01B4045F5D90320EC
:10443000BDE8F081022A02D113F0007FDFE713F01C
:10444000020FDCE7022B0FD1636803F00C03082B8B
:1044500095D0FFF79DFAC01B4045F5D9E7E7FFF778
:1044600097FAC01B4045E2D8636813F00C0FF6D1F1
:1044700085E7136823F0070333431360136803F0E1
:1044800007039E42A9D180E76368E96823F4E063EB
:104490000B4363607EE700BF002002400010024033
:1044A0009C95000800000020014B1868704700BF71
:1044B00000000020044B054A5B68C3F30223D35C71
:1044C000034A1068D840704700100240AC950008BD
:1044D00000000020044B054A5B68C3F3C223D35C91
:1044E000034A1068D840704700100240AC9500089D
:1044F0000000002003682DE9F341D907054620D5C7
:10450000354CE369DA0032D40127E36943F0805384
:10451000E361E36903F080530193019B2F4E3368FD
:10452000DB0526D5236A13F4407336D1236A6A6803
:1045300023F44073134323621FB1E36923F08053D4
:10454000E3612868830706D5234AA968536823F4E2
:1045500040430B43536010F010001BD01E4AE96823
:104560005368002023F480030B43536012E00027BC
:10457000D4E7336843F480733360FFF709FA804669
:104580003368D805CED4FFF703FAA0EB08006428FF
:10459000F6D9032002B0BDE8F0816A6802F44072E7
:1045A0009342C3D001200E4A236A1060002023F4F6
:1045B000407110602162D907B8D5FFF7E9F941F2DF
:1045C00088380646236A9A07B0D4FFF7E1F9801BC2
:1045D0004045F7D9DDE700BF001002400070004001
:1045E000400442422DE9F0470568C2682B69016921
:1045F00023F4405313432B618368EA680B434169FA
:1046000022F4B05222F00C020B431343EB606B69AF
:10461000826923F4407313436B61404B81469D4292
:104620004FF0190446D1FFF755FF04FB00F3D9F80A
:1046300004604FF06408B600B3FBF6F3B3FBF8F385
:104640001E01FFF747FF6043D9F804309B00B0FB21
:10465000F3F7FFF73FFF6043D9F804309B00B0FB4E
:10466000F3F3B3FBF8F308FB13731B013233B3FB13
:10467000F8F303F0F007FFF72DFF6043D9F80420AB
:104680009200B0FBF2FAFFF725FF6043D9F804303F
:104690009B00B0FBF3F3B3FBF8F308FB13A31B0180
:1046A0003233B3FBF8F303F00F033B433344AB6007
:1046B000BDE8F087FFF7FEFE04FB00F3D9F80460C5
:1046C0004FF06408B600B3FBF6F3B3FBF8F31E013A
:1046D000FFF7F0FE6043D9F804309B00B0FBF3F71E
:1046E000FFF7E8FE6043D9F804309B00B0FBF3F31A
:1046F000B3FBF8F308FB13731B013233B3FBF8F37E
:1047000003F0F007FFF7D6FE6043D9F804209200CB
:10471000B0FBF2FAFFF7CEFEB7E700BF003801406A
:10472000F8B504460E4617461D4621680B6836EA62
:10473000030301D10020F8BD6B1CF7D095B92368A5
:104740000320DA6822F4D072DA605A6922F001029A
:104750005A61202384F8393084F83A30002384F8F1
:104760003830F8BDFFF714F9C01B8542DDD2E6E70B
:1047700010B5044640B390F8393003F0FF021BB97E
:1047800080F8382000F00CFA2423226884F83930AD
:10479000D368204623F40053D360FFF723FF236838
:1047A00000201A6922F490421A615A6922F02A0202
:1047B0005A61DA6842F40052DA602023E06384F838
:1047C000393084F83A3010BD012010BD2DE9F04198
:1047D0001F4690F839300446202B0D4690464ED1A6
:1047E000002949D0002A47D090F83830012B46D014
:1047F000012380F838300023C363212380F8393047
:10480000FFF7C6F80646A4F82480A4F82680E38CB7
:104810009BB26BB93B46324640212046FFF780FFF2
:10482000A8B9202384F8380084F83930BDE8F08135
:10483000E38C3246013B9BB2E384A3688021B3F54D
:10484000805F20463B460ED1FFF76AFF10B1032080
:10485000BDE8F0812B882268C3F308035360236905
:1048600043B90235D3E7FFF75BFF0028EFD1236898
:104870002A785A600135CAE70120BDE8F08102209C
:10488000BDE8F081012310B594B00E9310230224EB
:104890000F9300230AA80A941193FFF797FB014690
:1048A00000B1FEE70F23069007900890099005A835
:1048B0000593FFF755FD00B1FEE7039001A80194B1
:1048C000FFF718FE044600B1FEE7FFF7EDFD4FF4D9
:1048D0007A73B0FBF3F0FFF76BFA0420FFF77EFA70
:1048E000224621464FF0FF30FFF72EFA14B010BDDC
:1048F0002DE9F04F8BB0FFF731F8FFF7C3FF6A4B9C
:104900004FF400519A69694842F010029A619A691D
:10491000012502F010020492049A9A69644C42F054
:1049200004029A619B69002203F004030593059B2E
:10493000FFF746FB4FF40053069302235B4806A99A
:1049400009930795FFF75CFA5A4B4FF460222360F6
:1049500000232046A360E3606361E2616360256138
:10496000FFF760F900B1FEE70323089006A920468F
:1049700006930795FFF716F800B1FEE74FF41653BC
:104980004D4E4E4AB06086E80C000C23F06030615A
:10499000B061F06130467361FFF7EAFE00B1FEE7F7
:1049A0002023ADF804302623ADF808302323B24687
:1049B000ADF80C30A34634A5D5E900455846FFF7BD
:1049C000ADF85846FEF7EAFF3D4B53F82000FEF7DE
:1049D00023FD22462B4680468946FEF771FD42465E
:1049E00006460F462AA1D1E900014B46FEF7B4FB6B
:1049F00002460B4630463946FEF78CFE26A3D3E925
:104A00000023FEF7A9FB26A3D3E90023FEF782FECD
:104A100000222C4BFEF754FDFEF764FF0A2290FBA8
:104A2000F2F102FB11000528C8BF013191FBF2F33E
:104A300002FB1313C91A013991FBF2F206A82249AD
:104A400000F05AF906466423022202A95046FFF7F5
:104A5000BDFE721C642392B206A95046FFF7B6FE53
:104A60006423022201A95046FFF7B0FE642302220C
:104A700003A95046FFF7AAFE0023144A01339342CC
:104A8000FCD19BE7AFF3008085EB51B81EEF82406D
:104A90006666666666660A40F94ADE082452564033
:104AA000809076ED1C54D43F00100240001001406D
:104AB0009400002000240140C40000200038014080
:104AC0009C550008000059409455000840420F00D2
:104AD000214B07B59A69032042F001029A619B6954
:104AE00003F001030193019BFFF71CF900226FF013
:104AF0000B001146FFF728F900226FF00A0011465B
:104B0000FFF722F900226FF009001146FFF71CF9A8
:104B100000226FF004001146FFF716F900226FF033
:104B200003001146FFF710F900226FF00100114653
:104B3000FFF70AF900224FF0FF301146FFF704F9A2
:104B4000064B5A6822F0E0625A605A6842F080626E
:104B50005A6003B05DF804FB001002400000014001
:104B60007FB502680C4B9A4212D103F56C439A69E7
:104B700002A942F400729A619B69084803F4007329
:104B80000193019B0823029303230393FFF738F952
:104B900007B05DF804FB00BF00240140000801409D
:104BA0007FB50268124B9A421FD103F558439A69A8
:104BB00002A942F480429A619B690E4803F4804343
:104BC0000193019B4FF40073029302230393032389
:104BD0000593FFF715F94FF480630293002302A9B0
:104BE000044803930493FFF70BF907B05DF804FB47
:104BF00000380140000801407047FEE7FEE7FEE78D
:104C0000FEE770477047704708B5FEF7B9FEBDE88C
:104C10000840FFF7F0B800000F4B1A6842F001029D
:104C20001A6059680D4A0A405A601A6822F0847264
:104C300022F480321A601A6822F480221A605A68BC
:104C400022F4FE025A604FF41F029A604FF0006295
:104C5000034B9A60704700BF001002400000FFF84D
:104C600000ED00E0002103E00B4B5B5843500431A2
:104C70000A480B4B42189A42F6D30A4A02E0002334
:104C800042F8043B084B9A42F9D3FFF7C5FF00F006
:104C90000FF8FFF72DFE7047F09500080000002088
:104CA000680000206800002008010020FEE70000E6
:104CB00070B500250C4E0D4CA41BA410A54209D1C3
:104CC00000F054FC00250A4E0A4CA41BA410A54277
:104CD00005D170BD56F8253098470135EEE756F8F6
:104CE000253098470135F2E7E8950008E895000877
:104CF000E8950008EC9500080EB44FF4027100B579
:104D00009CB0ADF814106FF00041049107914FF67C
:104D1000FF711DAB02900690084853F8042BADF8C4
:104D20001610006802A9019300F066F80022029BA9
:104D30001A701CB05DF804EB03B07047040000204B
:104D40002DE9F0478E6882469E420C469146984671
:104D500035D88A8912F4906F31D002232568096909
:104D60006F1A656905EB450595FBF3F508F101033D
:104D70003B449D4238BF1D46530531D5294600F0BE
:104D800047FB064650B90C23CAF80030A3894FF000
:104D9000FF3043F04003A381BDE8F0873A46216924
:104DA00000F0C4FAA38923F4906343F08003A38145
:104DB00026613E44266046466561ED1BA56046457A
:104DC00028BF464649463246206800F0BAFAA36832
:104DD00000209B1BA36023681E442660BDE8F0876B
:104DE0002A4600F073FB06460028E1D121695046AF
:104DF00000F0C2FAC7E700002DE9F04F9DB0039321
:104E00008B8980461C060D4616460FD50B696BB97B
:104E1000402100F0FDFA2860286128B90C23C8F869
:104E200000304FF0FF30C4E040236B610023099352
:104E300020238DF8293030234FF0010B8DF82A30D4
:104E400037463C4614F8013B002B3CD1B7EB060A31
:104E50000BD05346324629464046FFF771FF0130DA
:104E600000F0A280099B534409933B78002B00F08B
:104E70009B8000234FF0FF32049307930592069323
:104E80008DF853301A9305222178504800F040FAEB
:104E9000671C049BD8B9D90644BF20228DF8532043
:104EA0001A0744BF2B228DF8532022782A2A16D0C5
:104EB00000210A20079A27463B780134303B092B12
:104EC00050D9C9B111E0252BC0D02746B9E73F4AD8
:104ED0003C46801A0BFA00F018430490D3E7039A7B
:104EE000111D12680391002A01DB079204E052426F
:104EF00043F00203079204933B782E2B0DD17B786D
:104F0000791C2A2B32D1039B02371A1D1B6803928E
:104F1000002BB8BF4FF0FF3305932D4C0322397897
:104F2000204600F0F5F938B14023001B03FA00F0E9
:104F3000049B0137034304933978062225487E1CDD
:104F40008DF8281000F0E4F9002835D0224BFBB989
:104F5000039B073323F0070308330393099B4B4458
:104F600009936DE700FB02320121A4E700230A2424
:104F7000184605930F463A780131303A092A03D989
:104F8000002BCAD00590C8E704FB00200123F1E7FD
:104F900003AB00932A46114B04A94046AFF30080AF
:104FA000B0F1FF3F8146D9D1AB895B063FF539AF00
:104FB00009981DB0BDE8F08F03AB00932A46074B5C
:104FC00004A9404600F084F8EAE700BFB495000861
:104FD000BA950008BE95000800000000414D000889
:104FE0002DE9F04791461F468A680B6906469342B1
:104FF000B8BF1346C9F8003091F843200C46DDF8DD
:10500000208012B10133C9F800302368990642BFED
:10501000D9F800300233C9F80030256815F00605CC
:1050200007D104F1190AE368D9F800209B1A9D42C0
:105030002ADB94F843302268003318BF012392061C
:105040002FD404F1430239463046C047013022D004
:105050002368E56803F00603042B18BF0025D9F880
:1050600000204FF0000908BFAD1AA368226908BFED
:1050700025EAE5759342C4BF9B1AED181A344D45D5
:105080001BD10020BDE8F087012352463946304647
:10509000C047013003D14FF0FF30BDE8F087013544
:1050A000C1E73020E11881F843005A1C94F84510FC
:1050B0002244023382F84310C3E7012322463946D3
:1050C0003046C0470130E6D009F10109D7E70000BA
:1050D0002DE9F04317460A7E85B06E2A98460646AB
:1050E0000C460C9B01F1430E00F0BC801AD8632AD9
:1050F0002ED00AD8002A00F0C880582A00F08A80F2
:1051000004F1420584F842202AE0642A01D0692A89
:10511000F6D121681A6811F0800F23D0111D196093
:10512000136827E0732A00F0B48008D86F2A2AD0C9
:10513000702AE5D10A6842F020020A6003E0752A6D
:1051400021D0782ADCD178226F4984F8452064E0A8
:105150001A6801F14205111D1960136884F8423084
:105160000123A3E011F0400F02F104011960D7D030
:10517000B2F90030002B03DA2D225B4284F8432081
:1051800062490A2217E02068196810F0800F03D0E6
:10519000081D18600B6806E010F0400F01F10400D4
:1051A0001860F7D00B886F2A14BF0A2208225749CB
:1051B000002084F843006568002DA560C0F29C8043
:1051C000206820F004002060002B3FD1002D40F02B
:1051D00095807546082A0BD12368DA0708D523691C
:1051E00062689A42DEBF302305F8013C05F1FF35C5
:1051F000AEEB05032361CDF800803B4603AA2146B0
:105200003046FFF7EDFE013055D14FF0FF3005B0CD
:10521000BDE8F08381F845203C492268186812F007
:10522000800F00F104051D6001D0036802E05506FF
:10523000FBD50388D00744BF42F0200222601BB98F
:10524000226822F0200222601022B1E77546B3FBEB
:10525000F2F002FB1033CB5C05F8013D0346002859
:10526000F5D1B7E708681A6810F0800F496904D0D3
:10527000101D18601368196007E010F0400F02F16C
:10528000040018601368F6D0198000237546236166
:10529000B1E71A68111D1960156800216268284677
:1052A00000F036F808B1401B60606368236100239A
:1052B00084F843309FE723692A4639463046C04781
:1052C0000130A2D023689B0707D5002504F11909F6
:1052D000E368039A9B1A9D4205DBE068039B9842B2
:1052E000B8BF184693E701234A4639463046C047BF
:1052F00001308AD00135EBE7002BA7D10B7804F100
:10530000420584F8423065E7D6950008C595000847
:1053100010B5C9B202449042034601D1002010BD2D
:105320001C7801308C42F6D1184610BD10B5431ED2
:105330000A44914200D110BD11F8014B03F8014F0E
:10534000F7E7884210B501EB020303D8421E9942E9
:105350000CD110BD9842F9D28118D21AD34200D193
:1053600010BD13F8014D01F8014DF7E711F8014B9D
:1053700002F8014FEBE7000038B50546002943D09D
:1053800051F8043C0C1F002BB8BFE41800F0D4F80F
:105390001E4A1368104633B9636014602846BDE89E
:1053A000384000F0CAB8A3420BD921686218934272
:1053B00001BF1A685B685218226063600460EDE701
:1053C00013465A680AB1A242FAD919685818A0427D
:1053D0000BD120680144581882421960DED1106850
:1053E0005268014419605A60D8E702D90C232B6037
:1053F000D4E7206821188A4201BF11685268091851
:10540000216062605C60C9E738BD00BF8400002095
:1054100070B5CD1C25F0030508350C2D38BF0C25C3
:10542000002D064601DBA94203D90C23336000207E
:1054300070BD00F081F8234A1468214691B9224CCE
:1054400023681BB9304600F067F8206029463046D3
:1054500000F062F8431C26D10C233046336000F084
:105460006CF8E4E70B685B1B1AD40B2B0FD90B60AD
:10547000CC18CD50304600F060F804F10B00231D2D
:1054800020F00700C31A1BD05A42E25070BD8C4274
:105490000BBF63684B681360636018BF0C46E9E795
:1054A0000C464968CAE7C41C24F00304A04205D096
:1054B000211A304600F030F80130CDD02560D9E710
:1054C00070BD00BF8400002088000020F8B50746AA
:1054D00014460E4621B91146BDE8F840FFF798BFC3
:1054E00022B9FFF749FF25462846F8BD00F026F807
:1054F00084420FD921463846FFF78AFF0546002827
:10550000F2D031462246FFF711FF31463846FFF709
:1055100033FFE9E73546E7E738B50023054C054694
:105520000846236000F014F8431C02D1236803B13D
:105530002B6038BD040100207047704751F8040CFF
:105540000028A0F10400BCBF0B58C0187047000031
:10555000044B0246196809B90349196018680244E6
:105560001A6070478C00002008010020F8B500BFC9
:10557000F8BC08BC9E467047F8B500BFF8BC08BC34
:045580009E4670478C
:1055840002030405060708090A0B0C0D0E0F101080
:1055940025642E2530326400000000000000000065
:1055A4006F12833A6F12033BA69B443B6F12833BFB
:1055B4006F12833B0AD7A33BA69BC43B4260E53BE7
:1055C4006F12033C6F12033CBC74133C0AD7233C98
:1055D4005839343CA69B443CA69B443CF4FD543CC3
:1055E4004260653C8FC2753C6F12833C6F12833CF2
:1055F40096438B3CBC74933CE3A59B3C0AD7A33CE9
:105604000AD7A33C3108AC3C5839B43C7F6ABC3C53
:10561400A69BC43CA69BC43CCDCCCC3CF4FDD43C62
:105624001B2FDD3C4260E53C6891ED3C6891ED3C0C
:105634008FC2F53CB6F3FD3C6F12033D022B073DD0
:10564400022B073D96430B3D295C0F3DBC74133D73
:10565400508D173D508D173DE3A51B3D77BE1F3D73
:105664000AD7233D9EEF273D9EEF273D31082C3D71
:10567400C520303D5839343DEC51383DEC51383D6E
:105684007F6A3C3D1283403DA69B443D39B4483D6E
:1056940039B4483DCDCC4C3D60E5503DF4FD543D1E
:1056A4008716593D8716593D1B2F5D3DAE47613D19
:1056B4004260653DD578693D68916D3D68916D3D69
:1056C400FCA9713D8FC2753D23DB793DB6F37D3D69
:1056D400B6F37D3D2506813D6F12833DB81E853DA1
:1056E400022B873D022B873D4C37893D96438B3DEA
:1056F400DF4F8D3D295C8F3D295C8F3D7368913D63
:10570400BC74933D0681953D508D973D508D973DDA
:105714009A99993DE3A59B3D2DB29D3D77BE9F3D52
:1057240077BE9F3DC1CAA13D0AD7A33D54E3A53D21
:105734009EEFA73DE7FBA93DE7FBA93D3108AC3D42
:105744007B14AE3DC520B03D0E2DB23D0E2DB23DB5
:105754005839B43DA245B63DEC51B83D355EBA3D2D
:10576400355EBA3D7F6ABC3DC976BE3D1283C03DFD
:105774005C8FC23D5C8FC23DA69BC43DF0A7C63D75
:1057840039B4C83D83C0CA3D83C0CA3DCDCCCC3DED
:1057940017D9CE3D60E5D03DAAF1D23DAAF1D23D64
:1057A400F4FDD43D3D0AD73D8716D93DD122DB3DDA
:1057B400D122DB3D1B2FDD3D643BDF3DAE47E13DA8
:1057C400F853E33D4260E53D4260E53D8B6CE73DC7
:1057D400D578E93D1F85EB3D6891ED3D6891ED3D40
:1057E400B29DEF3DFCA9F13D46B6F33D8FC2F53DB8
:1057F4008FC2F53DD9CEF73D23DBF93D6DE7FB3D87
:10580400B6F3FD3DB6F3FD3D0000003E2506013E26
:105814004A0C023E6F12033E6F12033E9318043E7D
:10582400B81E053EDD24063E022B073E022B073E32
:105834002731083E4C37093E713D0A3E96430B3EE4
:1058440096430B3EBA490C3EDF4F0D3E04560E3EC6
:10585400295C0F3E4E62103E4E62103E7368113E4C
:10586400986E123EBC74133EE17A143EE17A143E03
:105874000681153E2B87163E508D173E7593183EB4
:105884007593183E9A99193EBE9F1A3EE3A51B3E96
:1058940008AC1C3E08AC1C3E2DB21D3E52B81E3E48
:1058A40077BE1F3E9CC4203E9CC4203EC1CA213EFC
:1058B400E5D0223E0AD7233E2FDD243E2FDD243EB1
:1058C40054E3253E79E9263E9EEF273EC3F5283E64
:1058D400E7FB293EE7FB293E0C022B3E31082C3E18
:1058E400560E2D3E7B142E3E7B142E3EA01A2F3EC8
:1058F400C520303EE926313E0E2D323E0E2D323E7D
:105904003333333E5839343E7D3F353EA245363E2F
:10591400A245363EC74B373EEC51383E1058393E0F
:10592400355E3A3E355E3A3E5A643B3E7F6A3C3EC3
:10593400A4703D3EC9763E3EC9763E3EEE7C3F3E77
:105944001283403E3789413E5C8F423E5C8F423E2B
:105954008195433EA69B443ECBA1453EF0A7463EDF
:1059640014AE473E14AE473E39B4483E5EBA493E93
:1059740083C04A3EA8C64B3EA8C64B3ECDCC4C3E47
:10598400F2D24D3E17D94E3E3BDF4F3E3BDF4F3EFA
:1059940060E5503E85EB513EAAF1523ECFF7533EAF
:1059A400CFF7533EF4FD543E1904563E3D0A573E8C
:1059B4006210583E6210583E8716593EAC1C5A3E3F
:1059C400D1225B3EF6285C3EF6285C3E1B2F5D3EF2
:1059D4003F355E3E643B5F3E8941603E8941603EA7
:1059E400AE47613ED34D623EF853633E1D5A643E5A
:1059F4004260653E4260653E6666663E8B6C673E0D
:105A0400B072683ED578693ED578693EFA7E6A3EC2
:105A14001F856B3E448B6C3E68916D3E68916D3E74
:105A24008D976E3EB29D6F3ED7A3703EFCA9713E2A
:105A3400FCA9713E21B0723E46B6733E6ABC743E08
:105A44008FC2753E8FC2753EB4C8763ED9CE773EBE
:105A5400FED4783E23DB793E23DB793E48E17A3E6F
:105A64006DE77B3E91ED7C3EB6F37D3EDBF97E3EF9
:105A7400DBF97E3E0000803E1283803E2506813E97
:105A84003789813E3789813E4A0C823E5C8F823E53
:105A94006F12833E8195833E8195833E9318843EA5
:105AA400A69B843EB81E853ECBA1853ECBA1853EF8
:105AB400DD24863EF0A7863E022B873E14AE873E49
:105AC40014AE873E2731883E39B4883E4C37893E30
:105AD4005EBA893E5EBA893E713D8A3E83C08A3E83
:105AE40096438B3EA8C68B3EA8C68B3EBA498C3ED5
:105AF400CDCC8C3EDF4F8D3EF2D28D3E04568E3E91
:105B040004568E3E17D98E3E295C8F3E3BDF8F3E76
:105B14004E62903E4E62903E60E5903E7368913EC8
:105B240085EB913E986E923E986E923EAAF1923E1B
:105B3400BC74933ECFF7933EE17A943EE17A943E6F
:105B4400F4FD943E0681953E1904963E2B87963EBD
:105B54002B87963E3D0A973E508D973E6210983EA5
:105B64007593983E7593983E8716993E9A99993EF7
:105B7400AC1C9A3EBE9F9A3ED1229B3ED1229B3EB4
:105B8400E3A59B3EF6289C3E08AC9C3E1B2F9D3E05
:105B94001B2F9D3E2DB29D3E3F359E3E52B89E3EEC
:105BA400643B9F3E643B9F3E77BE9F3E8941A03E3F
:105BB4009CC4A03EAE47A13EAE47A13EC1CAA13E91
:105BC400D34DA23EE5D0A23EF853A33EF853A33EE4
:105BD4000AD7A33E1D5AA43E2FDDA43E4260A53E33
:105BE4004260A53E54E3A53E6666A63E79E9A63E1C
:105BF4008B6CA73E8B6CA73E9EEFA73EB072A83E6F
:105C0400C3F5A83ED578A93EE7FBA93EE7FBA93E2C
:105C1400FA7EAA3E0C02AB3E1F85AB3E3108AC3E79
:105C24003108AC3E448BAC3E560EAD3E6891AD3E61
:105C34007B14AE3E7B14AE3E8D97AE3EA01AAF3EB3
:105C4400B29DAF3EC520B03EC520B03ED7A3B03E06
:105C5400E926B13EFCA9B13E0E2DB23E0E2DB23E58
:105C640021B0B23E3333B33E46B6B33E5839B43EA8
:105C74005839B43E6ABCB43E7D3FB53E8FC2B53E92
:105C8400A245B63EA245B63EB4C8B63EC74BB73EE3
:105C9400D9CEB73EEC51B83EFED4B83EFED4B83EA1
:105CA4001058B93E23DBB93E355EBA3E48E1BA3EF0
:105CB40048E1BA3E5A64BB3E6DE7BB3E7F6ABC3ED8
:105CC40091EDBC3E91EDBC3EA470BD3EB6F3BD3E2D
:105CD400C976BE3EDBF9BE3EDBF9BE3EEE7CBF3E7E
:105CE4000000C03E1283C03E2506C13E2506C13ECB
:105CF4003789C13E4A0CC23E5C8FC23E6F12C33E1E
:105D04006F12C33E8195C33E9318C43EA69BC43E06
:105D1400B81EC53ECBA1C53ECBA1C53EDD24C63EC3
:105D2400F0A7C63E022BC73E14AEC73E14AEC73E14
:105D34002731C83E39B4C83E4C37C93E5EBAC93E65
:105D44005EBAC93E713DCA3E83C0CA3E9643CB3E4D
:105D5400A8C6CB3EA8C6CB3EBA49CC3ECDCCCC3EA1
:105D6400DF4FCD3EF2D2CD3EF2D2CD3E0456CE3EF2
:105D740017D9CE3E295CCF3E3BDFCF3E3BDFCF3E43
:105D84004E62D03E60E5D03E7368D13E85EBD13E95
:105D940085EBD13E986ED23EAAF1D23EBC74D33E7E
:105DA400CFF7D33EE17AD43EE17AD43EF4FDD43E3B
:105DB4000681D53E1904D63E2B87D63E2B87D63E88
:105DC4003D0AD73E508DD73E6210D83E7593D83EDB
:105DD4007593D83E8716D93E9A99D93EAC1CDA3EC3
:105DE400BE9FDA3EBE9FDA3ED122DB3EE3A5DB3E18
:105DF400F628DC3E08ACDC3E08ACDC3E1B2FDD3E66
:105E04002DB2DD3E3F35DE3E52B8DE3E52B8DE3EB8
:105E1400643BDF3E77BEDF3E8941E03E9CC4E03E0A
:105E24009CC4E03EAE47E13EC1CAE13ED34DE23EF2
:105E3400E5D0E23EF853E33EF853E33E0AD7E33EAF
:105E44001D5AE43E2FDDE43E4260E53E4260E53EFD
:105E540054E3E53E6666E63E79E9E63E8B6CE73E52
:105E64008B6CE73E9EEFE73EB072E83EC3F5E83E3A
:105E7400D578E93ED578E93EE7FBE93EFA7EEA3E8D
:105E84000C02EB3E1F85EB3E1F85EB3E3108EC3EDA
:105E9400448BEC3E560EED3E6891ED3E6891ED3E2E
:105EA4007B14EE3E8D97EE3EA01AEF3EB29DEF3E80
:105EB400C520F03EC520F03ED7A3F03EE926F13ED2
:105EC400FCA9F13E0E2DF23E0E2DF23E21B0F23E23
:105ED4003333F33E46B6F33E5839F43E5839F43E74
:105EE4006ABCF43E7D3FF53E8FC2F53EA245F63EC8
:105EF400A245F63EB4C8F63EC74BF73ED9CEF73EB0
:105F0400EC51F83EEC51F83EFED4F83E1058F93E00
:105F140023DBF93E355EFA3E355EFA3E48E1FA3E51
:105F24005A64FB3E6DE7FB3E7F6AFC3E7F6AFC3EA3
:105F340091EDFC3EA470FD3EB6F3FD3EC976FE3EF7
:105F4400DBF9FE3EDBF9FE3EEE7CFF3E0000003F47
:105F54008941003F1283003F1283003F9CC4003FED
:105F64002506013FAE47013F3789013F3789013F8D
:105F7400C1CA013F4A0C023FD34D023F5C8F023F2E
:105F84005C8F023FE5D0023F6F12033FF853033F9B
:105F94008195033F8195033F0AD7033F9318043F3C
:105FA4001D5A043FA69B043FA69B043F2FDD043FDC
:105FB400B81E053F4260053FCBA1053F54E3053FB2
:105FC40054E3053FDD24063F6666063FF0A7063F1F
:105FD40079E9063F79E9063F022B073F8B6C073FBF
:105FE40014AE073F9EEF073F9EEF073F2731083F60
:105FF400B072083F39B4083FC3F5083FC3F5083F02
:106004004C37093FD578093F5EBA093FE7FB093FA2
:10601400E7FB093F713D0A3FFA7E0A3F83C00A3F0E
:106024000C020B3F0C020B3F96430B3F1F850B3FAB
:10603400A8C60B3F31080C3F31080C3FBA490C3F4E
:10604400448B0C3FCDCC0C3F560E0D3FDF4F0D3F24
:10605400DF4F0D3F68910D3FF2D20D3F7B140E3F91
:1060640004560E3F04560E3F8D970E3F17D90E3F30
:10607400A01A0F3F295C0F3F295C0F3FB29D0F3FD1
:106084003BDF0F3FC520103F4E62103F4E62103F72
:10609400D7A3103F60E5103FE926113F7368113F15
:1060A4007368113FFCA9113F85EB113F0E2D123F80
:1060B400986E123F986E123F21B0123FAAF1123F20
:1060C4003333133FBC74133FBC74133F46B6133FC2
:1060D400CFF7133F5839143FE17A143F6ABC143F99
:1060E4006ABC143FF4FD143F7D3F153F0681153F04
:1060F4008FC2153F8FC2153F1904163FA245163FA4
:106104002B87163FB4C8163FB4C8163F3D0A173F45
:10611400C74B173F508D173FD9CE173FD9CE173FE6
:106124006210183FEC51183F7593183FFED4183F86
:10613400FED4183F8716193F1058193F9A99193FF2
:1061440023DB193F23DB193FAC1C1A3F355E1A3F92
:10615400BE9F1A3F48E11A3FD1221B3FD1221B3F69
:106164005A641B3FE3A51B3F6DE71B3FF6281C3F0A
:10617400F6281C3F7F6A1C3F08AC1C3F91ED1C3F76
:106184001B2F1D3F1B2F1D3FA4701D3F2DB21D3F14
:10619400B6F31D3F3F351E3F3F351E3FC9761E3FB8
:1061A40052B81E3FDBF91E3F643B1F3F643B1F3F59
:1061B400EE7C1F3F77BE1F3F0000203F8941203FF8
:1061C4008941203F1283203F9CC4203F2506213F64
:1061D400AE47213FAE47213F3789213FC1CA213F06
:1061E4004A0C223FD34D223F5C8F223F5C8F223FDB
:1061F400E5D0223F6F12233FF853233F8195233F7D
:106204008195233F0AD7233F9318243F1D5A243FE7
:10621400A69B243FA69B243F2FDD243FB81E253F89
:106224004260253FCBA1253FCBA1253F54E3253F29
:10623400DD24263F6666263FF0A7263FF0A7263FCB
:1062440079E9263F022B273F8B6C273F14AE273F6B
:1062540014AE273F9EEF273F2731283FB072283FD7
:1062640039B4283FC3F5283FC3F5283F4C37293FAD
:10627400D578293F5EBA293FE7FB293FE7FB293F51
:10628400713D2A3FFA7E2A3F83C02A3F0C022B3FEE
:106294000C022B3F96432B3F1F852B3FA8C62B3F59
:1062A40031082C3F31082C3FBA492C3F448B2C3FFA
:1062B400CDCC2C3F560E2D3F560E2D3FDF4F2D3F9C
:1062C40068912D3FF2D22D3F7B142E3F7B142E3F3D
:1062D40004562E3F8D972E3F17D92E3FA01A2F3FDD
:1062E400A01A2F3F295C2F3FB29D2F3F3BDF2F3F4A
:1062F400C520303F4E62303F4E62303FD7A3303F1F
:1063040060E5303FE926313F7368313F7368313FC0
:10631400FCA9313F85EB313F0E2D323F986E323F61
:10632400986E323F21B0323FAAF1323F3333333FCC
:10633400BC74333FBC74333F46B6333FCFF7333F6F
:106344005839343FE17A343FE17A343F6ABC343F10
:10635400F4FD343F7D3F353F0681353F0681353FAF
:106364008FC2353F1904363FA245363F2B87363F4F
:106374002B87363FB4C8363F3D0A373FC74B373FBC
:10638400508D373FD9CE373FD9CE373F6210383F93
:10639400EC51383F7593383FFED4383FFED4383F34
:1063A4008716393F1058393F9A99393F23DB393FD3
:1063B40023DB393FAC1C3A3F355E3A3FBE9F3A3F40
:1063C40048E13A3F48E13A3FD1223B3F5A643B3FE0
:1063D400E3A53B3F6DE73B3F6DE73B3FF6283C3F82
:1063E4007F6A3C3F08AC3C3F91ED3C3F91ED3C3F24
:1063F4001B2F3D3FA4703D3F2DB23D3FB6F33D3FC3
:106404003F353E3F3F353E3FC9763E3F52B83E3F63
:10641400DBF93E3F643B3F3F643B3F3FEE7C3F3F05
:1064240077BE3F3F0000403F8941403F8941403FA4
:106434001283403F9CC4403F2506413FAE47413F45
:10644400AE47413F3789413FC1CA413F4A0C423FB1
:10645400D34D423FD34D423F5C8F423FE5D0423F54
:106464006F12433FF853433FF853433F8195433FF3
:106474000AD7433F9318443F1D5A443F1D5A443F93
:10648400A69B443F2FDD443FB81E453F4260453F35
:10649400CBA1453FCBA1453F54E3453FDD24463FD7
:1064A4006666463FF0A7463FF0A7463F79E9463F78
:1064B400022B473F8B6C473F14AE473F14AE473F18
:1064C4009EEF473F2731483FB072483F39B4483FB9
:1064D40039B4483FC3F5483F4C37493FD578493F25
:1064E4005EBA493F5EBA493FE7FB493F713D4A3FC7
:1064F400FA7E4A3F83C04A3F83C04A3F0C024B3F67
:1065040096434B3F1F854B3FA8C64B3FA8C64B3F06
:1065140031084C3FBA494C3F448B4C3FCDCC4C3FA7
:10652400560E4D3F560E4D3FDF4F4D3F68914D3F48
:10653400F2D24D3F7B144E3F7B144E3F04564E3FE8
:106544008D974E3F17D94E3FA01A4F3FA01A4F3F89
:10655400295C4F3FB29D4F3F3BDF4F3FC520503F2B
:10656400C520503F4E62503FD7A3503F60E5503F97
:10657400E926513FE926513F7368513FFCA9513F39
:1065840085EB513F0E2D523F0E2D523F986E523FD8
:1065940021B0523FAAF1523F3333533FBC74533FAF
:1065A400BC74533F46B6533FCFF7533F5839543F1B
:1065B400E17A543FE17A543F6ABC543FF4FD543FBE
:1065C4007D3F553F0681553F0681553F8FC2553F5C
:1065D4001904563FA245563F2B87563F2B87563FFB
:1065E400B4C8563F3D0A573FC74B573F508D573F9E
:1065F400508D573FD9CE573F6210583FEC51583F0A
:106604007593583F7593583FFED4583F8716593FAA
:106614001058593F9A99593F9A99593F23DB593F4A
:10662400AC1C5A3F355E5A3FBE9F5A3F48E15A3F21
:1066340048E15A3FD1225B3F5A645B3FE3A55B3F8D
:106644006DE75B3F6DE75B3FF6285C3F7F6A5C3F2D
:1066540008AC5C3F91ED5C3F91ED5C3F1B2F5D3FCF
:10666400A4705D3F2DB25D3FB6F35D3FB6F35D3F71
:106674003F355E3FC9765E3F52B85E3FDBF95E3F11
:10668400DBF95E3F643B5F3FEE7C5F3F77BE5F3F7D
:106694000000603F0000603F8941603F1283603F1B
:1066A4009CC4603F2506613F2506613FAE47613FBC
:1066B4003789613FC1CA613F4A0C623FD34D623F93
:1066C400D34D623F5C8F623FE5D0623F6F12633F00
:1066D400F853633FF853633F8195633F0AD7633FA1
:1066E4009318643F1D5A643F1D5A643FA69B643F40
:1066F4002FDD643FB81E653F4260653F4260653FE1
:10670400CBA1653F54E3653FDD24663F6666663F83
:106714006666663FF0A7663F79E9663F022B673FEE
:106724008B6C673F8B6C673F14AE673F9EEF673F90
:106734002731683FB072683F39B4683F39B4683F65
:10674400C3F5683F4C37693FD578693F5EBA693F06
:106754005EBA693FE7FB693F713D6A3FFA7E6A3F73
:1067640083C06A3F83C06A3F0C026B3F96436B3F12
:106774001F856B3FA8C66B3FA8C66B3F31086C3FB3
:10678400BA496C3F448B6C3FCDCC6C3FCDCC6C3F55
:10679400560E6D3FDF4F6D3F68916D3FF2D26D3FF6
:1067A400F2D26D3F7B146E3F04566E3F8D976E3F61
:1067B40017D96E3F17D96E3FA01A6F3F295C6F3F00
:1067C400B29D6F3F3BDF6F3FC520703FC520703FD8
:1067D4004E62703FD7A3703F60E5703FE926713F7A
:1067E400E926713F7368713FFCA9713F85EB713FE6
:1067F4000E2D723F0E2D723F986E723F21B0723F84
:10680400AAF1723F3333733F3333733FBC74733F26
:1068140046B6733FCFF7733F5839743F5839743FC6
:10682400E17A743F6ABC743FF4FD743F7D3F753F69
:106834007D3F753F0681753F8FC2753F1904763FD2
:10684400A245763F2B87763F2B87763FB4C8763FA9
:106854003D0A773FC74B773F508D773F508D773F49
:10686400D9CE773F6210783FEC51783F7593783FEB
:106874007593783FFED4783F8716793F1058793F57
:106884009A99793F9A99793F23DB793FAC1C7A3FF7
:10689400355E7A3FBE9F7A3FBE9F7A3F48E17A3F9A
:1068A400D1227B3F5A647B3FE3A57B3FE3A57B3F3B
:1068B4006DE77B3FF6287C3F7F6A7C3F08AC7C3FDA
:1068C40008AC7C3F91ED7C3F1B2F7D3FA4707D3F46
:1068D4002DB27D3FB6F37D3FB6F37D3F3F357E3F1E
:1068E400C9767E3F52B87E3FDBF97E3FDBF97E3FBF
:1068F400643B7F3FEE7C7F3F77BE7F3F0000803F5D
:106904000000803FC520803F8941803F4E62803F28
:106914001283803F1283803FD7A3803F9CC4803F73
:1069240060E5803F2506813F2506813FE926813FBA
:10693400AE47813F7368813F3789813F3789813F03
:10694400FCA9813FC1CA813F85EB813F4A0C823F4C
:106954004A0C823F0E2D823FD34D823F986E823F78
:106964005C8F823F21B0823F21B0823FE5D0823FDD
:10697400AAF1823F6F12833F3333833F3333833F24
:10698400F853833FBC74833F8195833F46B6833F6E
:1069940046B6833F0AD7833FCFF7833F9318843F9C
:1069A4005839843F5839843F1D5A843FE17A843FE3
:1069B400A69B843F6ABC843F6ABC843F2FDD843F2E
:1069C400F4FD843FB81E853F7D3F853F7D3F853F75
:1069D4004260853F0681853FCBA1853F8FC2853FBD
:1069E40054E3853F54E3853F1904863FDD24863F05
:1069F400A245863F6666863F6666863F2B87863F4E
:106A0400F0A7863FB4C8863F79E9863F79E9863F97
:106A14003D0A873F022B873FC74B873F8B6C873FDD
:106A24008B6C873F508D873F14AE873FD9CE873F0D
:106A34009EEF873F9EEF873F6210883F2731883F54
:106A4400EC51883FB072883FB072883F7593883F9D
:106A540039B4883FFED4883FC3F5883FC3F5883FE7
:106A64008716893F4C37893F1058893FD578893F2D
:106A74009A99893F9A99893F5EBA893F23DB893F76
:106A8400E7FB893FAC1C8A3FAC1C8A3F713D8A3FBF
:106A9400355E8A3FFA7E8A3FBE9F8A3FBE9F8A3F09
:106AA40083C08A3F48E18A3F0C028B3FD1228B3F4F
:106AB400D1228B3F96438B3F5A648B3F1F858B3F7C
:106AC400E3A58B3FE3A58B3FA8C68B3F6DE78B3FC8
:106AD40031088C3FF6288C3FF6288C3FBA498C3F0E
:106AE4007F6A8C3F448B8C3F08AC8C3FCDCC8C3F71
:106AF400CDCC8C3F91ED8C3F560E8D3F1B2F8D3F9F
:106B0400DF4F8D3FDF4F8D3FA4708D3F68918D3FE8
:106B14002DB28D3FF2D28D3FF2D28D3FB6F38D3F31
:106B24007B148E3F3F358E3F04568E3F04568E3F76
:106B3400C9768E3F8D978E3F52B88E3F17D98E3FC0
:106B440017D98E3FDBF98E3FA01A8F3F643B8F3FEE
:106B5400295C8F3F295C8F3FEE7C8F3FB29D8F3F36
:106B640077BE8F3F3BDF8F3F3BDF8F3F0000903F7F
:106B7400C520903F8941903F4E62903F1283903FE1
:106B84001283903FD7A3903F9CC4903F60E5903F11
:106B94002506913F2506913FE926913FAE47913F57
:106BA4007368913F3789913F3789913FFCA9913FA1
:106BB400C1CA913F85EB913F4A0C923F4A0C923FE8
:106BC4000E2D923FD34D923F986E923F5C8F923F31
:106BD4005C8F923F21B0923FE5D0923FAAF1923F61
:106BE4006F12933F6F12933F3333933FF853933FA6
:106BF400BC74933F8195933F8195933F46B6933FF1
:106C04000AD7933FCFF7933F9318943F5839943F53
:106C14005839943F1D5A943FE17A943FA69B943F80
:106C24006ABC943F6ABC943F2FDD943FF4FD943FCB
:106C3400B81E953F7D3F953F7D3F953F4260953F10
:106C44000681953FCBA1953F8FC2953F8FC2953F5B
:106C540054E3953F1904963FDD24963FA245963FA1
:106C6400A245963F6666963F2B87963FF0A7963FD0
:106C7400B4C8963FB4C8963F79E9963F3D0A973F1A
:106C8400022B973FC74B973F8B6C973F8B6C973F7B
:106C9400508D973F14AE973FD9CE973F9EEF973FC5
:106CA4009EEF973F6210983F2731983FEC51983FF1
:106CB400B072983FB072983F7593983F39B4983F3B
:106CC400FED4983FC3F5983FC3F5983F8716993F84
:106CD4004C37993F1058993FD578993FD578993FCB
:106CE4009A99993F5EBA993F23DB993FE7FB993F15
:106CF400E7FB993FAC1C9A3F713D9A3F355E9A3F42
:106D0400FA7E9A3FFA7E9A3FBE9F9A3F83C09A3F8B
:106D140048E19A3F0C029B3FD1229B3FD1229B3FEB
:106D240096439B3F5A649B3F1F859B3FE3A59B3F34
:106D3400E3A59B3FA8C69B3F6DE79B3F31089C3F63
:106D4400F6289C3FF6289C3FBA499C3F7F6A9C3FAB
:106D5400448B9C3F08AC9C3F08AC9C3FCDCC9C3FF3
:106D640091ED9C3F560E9D3F1B2F9D3F1B2F9D3F3A
:106D7400DF4F9D3FA4709D3F68919D3F2DB29D3F85
:106D84002DB29D3FF2D29D3FB6F39D3F7B149E3FB3
:106D94003F359E3F3F359E3F04569E3FC9769E3FFA
:106DA4008D979E3F52B89E3F17D99E3F17D99E3F5D
:106DB400DBF99E3FA01A9F3F643B9F3F295C9F3FA6
:106DC400295C9F3FEE7C9F3FB29D9F3F77BE9F3FD4
:106DD4003BDF9F3F3BDF9F3F0000A03FC520A03F1C
:106DE4008941A03F4E62A03F4E62A03F1283A03F64
:106DF400D7A3A03F9CC4A03F60E5A03F60E5A03FAF
:106E04002506A13FE926A13FAE47A13F7368A13FF4
:106E14007368A13F3789A13FFCA9A13FC1CAA13F23
:106E240085EBA13F4A0CA23F4A0CA23F0E2DA23F84
:106E3400D34DA23F986EA23F5C8FA23F5C8FA23FCE
:106E440021B0A23FE5D0A23FAAF1A23F6F12A33F17
:106E54006F12A33F3333A33FF853A33FBC74A33F44
:106E64008195A33F8195A33F46B6A33F0AD7A33F8D
:106E7400CFF7A33F9318A43F9318A43F5839A43FD6
:106E84001D5AA43FE17AA43FA69BA43FA69BA43F1E
:106E94006ABCA43F2FDDA43FF4FDA43FB81EA53F68
:106EA400B81EA53F7D3FA53F4260A53F0681A53F93
:106EB400CBA1A53F8FC2A53F8FC2A53F54E3A53FF9
:106EC4001904A63FDD24A63FA245A63FA245A63F3E
:106ED4006666A63F2B87A63FF0A7A63FB4C8A63F89
:106EE400B4C8A63F79E9A63F3D0AA73F022BA73FB6
:106EF400C74BA73FC74BA73F8B6CA73F508DA73FFE
:106F040014AEA73FD9CEA73FD9CEA73F9EEFA73F48
:106F14006210A83F2731A83FEC51A83FEC51A83F8D
:106F2400B072A83F7593A83F39B4A83FFED4A83FD8
:106F3400C3F5A83FC3F5A83F8716A93F4C37A93F1F
:106F44001058A93FD578A93FD578A93F9A99A93F68
:106F54005EBAA93F23DBA93FE7FBA93FE7FBA93FB3
:106F6400AC1CAA3F713DAA3F355EAA3FFA7EAA3FF8
:106F7400FA7EAA3FBE9FAA3F83C0AA3F48E1AA3F28
:106F84000C02AB3F0C02AB3FD122AB3F9643AB3F6D
:106F94005A64AB3F1F85AB3F1F85AB3FE3A5AB3FB7
:106FA400A8C6AB3F6DE7AB3F3108AC3F3108AC3FFF
:106FB400F628AC3FBA49AC3F7F6AAC3F448BAC3F48
:106FC40008ACAC3F08ACAC3FCDCCAC3F91EDAC3F92
:106FD400560EAD3F1B2FAD3F1B2FAD3FDF4FAD3FD7
:106FE400A470AD3F6891AD3F2DB2AD3F2DB2AD3F22
:106FF400F2D2AD3FB6F3AD3F7B14AE3F3F35AE3F6B
:107004003F35AE3F0456AE3FC976AE3F8D97AE3F97
:1070140052B8AE3F52B8AE3F17D9AE3FDBF9AE3FE0
:10702400A01AAF3F643BAF3F643BAF3F295CAF3F27
:10703400EE7CAF3FB29DAF3F77BEAF3F77BEAF3F71
:107044003BDFAF3F0000B03FC520B03F8941B03FB8
:107054004E62B03F4E62B03F1283B03FD7A3B03F01
:107064009CC4B03F60E5B03F60E5B03F2506B13F4A
:10707400E926B13FAE47B13F7368B13F7368B13F92
:107084003789B13FFCA9B13FC1CAB13F85EBB13FDC
:1070940085EBB13F4A0CB23F0E2DB23FD34DB23F08
:1070A400986EB23F986EB23F5C8FB23F21B0B23F50
:1070B400E5D0B23FAAF1B23FAAF1B23F6F12B33F9B
:1070C4003333B33FF853B33FBC74B33F8195B33FFD
:1070D4008195B33F46B6B33F0AD7B33FCFF7B33F2B
:1070E4009318B43F9318B43F5839B43F1D5AB43F72
:1070F400E17AB43FA69BB43FA69BB43F6ABCB43FBD
:107104002FDDB43FF4FDB43FB81EB53FB81EB53F04
:107114007D3FB53F4260B53F0681B53FCBA1B53F4A
:10712400CBA1B53F8FC2B53F54E3B53F1904B63F79
:10713400DD24B63FDD24B63FA245B63F6666B63FC2
:107144002B87B63FF0A7B63FF0A7B63FB4C8B63F0B
:1071540079E9B63F3D0AB73F022BB73FC74BB73F6C
:10716400C74BB73F8B6CB73F508DB73F14AEB73F9B
:10717400D9CEB73FD9CEB73F9EEFB73F6210B83FE5
:107184002731B83FEC51B83FEC51B83FB072B83F2B
:107194007593B83F39B4B83FFED4B83FFED4B83F76
:1071A400C3F5B83F8716B93F4C37B93F1058B93FBC
:1071B4001058B93FD578B93F9A99B93F5EBAB93FEB
:1071C40023DBB93F23DBB93FE7FBB93FAC1CBA3F34
:1071D400713DBA3F355EBA3F355EBA3FFA7EBA3F7B
:1071E400BE9FBA3F83C0BA3F48E1BA3F0C02BB3FDF
:1071F4000C02BB3FD122BB3F9643BB3F5A64BB3F0B
:107204001F85BB3F1F85BB3FE3A5BB3FA8C6BB3F54
:107214006DE7BB3F3108BC3F3108BC3FF628BC3F9B
:10722400BA49BC3F7F6ABC3F448BBC3F448BBC3FE4
:1072340008ACBC3FCDCCBC3F91EDBC3F560EBD3F2E
:10724400560EBD3F1B2FBD3FDF4FBD3FA470BD3F5A
:107254006891BD3F6891BD3F2DB2BD3FF2D2BD3FA5
:10726400B6F3BD3F7B14BE3F3F35BE3F3F35BE3F07
:107274000456BE3FC976BE3F8D97BE3F52B8BE3F4F
:1072840052B8BE3F17D9BE3FDBF9BE3FA01ABF3F7D
:10729400643BBF3F643BBF3F295CBF3FEE7CBF3FC5
:1072A400B29DBF3F77BEBF3F77BEBF3F3BDFBF3F0F
:1072B4000000C03FC520C03F8941C03F8941C03F55
:1072C4004E62C03F1283C03FD7A3C03F9CC4C03F9F
:1072D4009CC4C03F60E5C03F2506C13FE926C13FCD
:1072E400AE47C13FAE47C13F7368C13F3789C13F15
:1072F400FCA9C13FC1CAC13F85EBC13F85EBC13F7A
:107304004A0CC23F0E2DC23FD34DC23F986EC23FBE
:10731400986EC23F5C8FC23F21B0C23FE5D0C23FEE
:10732400AAF1C23FAAF1C23F6F12C33F3333C33F36
:10733400F853C33FBC74C33FBC74C33F8195C33F80
:1073440046B6C33F0AD7C33FCFF7C33FCFF7C33FC8
:107354009318C43F5839C43F1D5AC43FE17AC43F0F
:10736400E17AC43FA69BC43F6ABCC43F2FDDC43F3F
:10737400F4FDC43FF4FDC43FB81EC53F7D3FC53F87
:107384004260C53F0681C53FCBA1C53FCBA1C53FE8
:107394008FC2C53F54E3C53F1904C63FDD24C63F31
:1073A400DD24C63FA245C63F6666C63F2B87C63F5F
:1073B400F0A7C63FF0A7C63FB4C8C63F79E9C63FA9
:1073C4003D0AC73F022BC73F022BC73FC74BC73FEE
:1073D4008B6CC73F508DC73F14AEC73F14AEC73F39
:1073E400D9CEC73F9EEFC73F6210C83F2731C83F81
:1073F4002731C83FEC51C83FB072C83F7593C83FAE
:1074040039B4C83FFED4C83FFED4C83FC3F5C83F13
:107414008716C93F4C37C93F1058C93F1058C93F58
:10742400D578C93F9A99C93F5EBAC93F23DBC93FA2
:1074340023DBC93FE7FBC93FAC1CCA3F713DCA3FD0
:10744400355ECA3F355ECA3FFA7ECA3FBE9FCA3F19
:1074540083C0CA3F48E1CA3F48E1CA3F0C02CB3F60
:10746400D122CB3F9643CB3F5A64CB3F5A64CB3FA8
:107474001F85CB3FE3A5CB3FA8C6CB3F6DE7CB3FF2
:107484006DE7CB3F3108CC3FF628CC3FBA49CC3F1F
:107494007F6ACC3F448BCC3F448BCC3F08ACCC3F81
:1074A400CDCCCC3F91EDCC3F560ECD3F560ECD3FCB
:1074B4001B2FCD3FDF4FCD3FA470CD3F6891CD3F13
:1074C4006891CD3F2DB2CD3FF2D2CD3FB6F3CD3F43
:1074D4007B14CE3F7B14CE3F3F35CE3F0456CE3F88
:1074E400C976CE3F8D97CE3F8D97CE3F52B8CE3FD3
:1074F40017D9CE3FDBF9CE3FA01ACF3FA01ACF3F1A
:10750400643BCF3F295CCF3FEE7CCF3FB29DCF3F62
:1075140077BECF3F77BECF3F3BDFCF3F0000D03FAA
:10752400C520D03F8941D03F8941D03F4E62D03FF2
:107534001283D03FD7A3D03F9CC4D03F9CC4D03F3C
:1075440060E5D03F2506D13FE926D13FAE47D13F84
:10755400AE47D13F7368D13F3789D13FFCA9D13FB2
:10756400C1CAD13FC1CAD13F85EBD13F4A0CD23FFA
:107574000E2DD23FD34DD23FD34DD23F986ED23F42
:107584005C8FD23F21B0D23FE5D0D23FE5D0D23F8D
:10759400AAF1D23F6F12D33F3333D33FF853D33FD3
:1075A400BC74D33FBC74D33F8195D33F46B6D33F1D
:1075B4000AD7D33FCFF7D33FCFF7D33F9318D43F66
:1075C4005839D43F1D5AD43FE17AD43FE17AD43FAD
:1075D400A69BD43F6ABCD43F2FDDD43FF4FDD43FF7
:1075E400F4FDD43FB81ED53F7D3FD53F4260D53F23
:1075F4000681D53F0681D53FCBA1D53F8FC2D53F6C
:1076040054E3D53F1904D63F1904D63FDD24D63FB1
:10761400A245D63F6666D63F2B87D63F2B87D63FFB
:10762400F0A7D63FB4C8D63F79E9D63F3D0AD73F45
:10763400022BD73F022BD73FC74BD73F8B6CD73F8B
:10764400508DD73F14AED73F14AED73FD9CED73FD6
:107654009EEFD73F6210D83F2731D83F2731D83F1C
:10766400EC51D83FB072D83F7593D83F39B4D83F66
:1076740039B4D83FFED4D83FC3F5D83F8716D93F95
:107684004C37D93F4C37D93F1058D93FD578D93FDB
:107694009A99D93F5EBAD93F5EBAD93F23DBD93F25
:1076A400E7FBD93FAC1CDA3F713DDA3F355EDA3F88
:1076B400355EDA3FFA7EDA3FBE9FDA3F83C0DA3FB7
:1076C40048E1DA3F48E1DA3F0C02DB3FD122DB3FFD
:1076D4009643DB3F5A64DB3F5A64DB3F1F85DB3F45
:1076E400E3A5DB3FA8C6DB3F6DE7DB3F6DE7DB3F90
:1076F4003108DC3FF628DC3FBA49DC3F7F6ADC3FD7
:107704007F6ADC3F448BDC3F08ACDC3FCDCCDC3F04
:1077140091EDDC3F91EDDC3F560EDD3F1B2FDD3F4D
:10772400DF4FDD3FA470DD3FA470DD3F6891DD3F96
:107734002DB2DD3FF2D2DD3FB6F3DD3F7B14DE3FF9
:107744007B14DE3F3F35DE3F0456DE3FC976DE3F25
:107754008D97DE3F8D97DE3F52B8DE3F17D9DE3F6F
:10776400DBF9DE3FA01ADF3FA01ADF3F643BDF3FB7
:10777400295CDF3FEE7CDF3FB29DDF3FB29DDF3F00
:1077840077BEDF3F3BDFDF3F0000E03FC520E03F47
:10779400C520E03F8941E03F4E62E03F1283E03F75
:1077A400D7A3E03FD7A3E03F9CC4E03F60E5E03FC0
:1077B4002506E13FE926E13FE926E13FAE47E13F07
:1077C4007368E13F3789E13FFCA9E13FC1CAE13F6A
:1077D400C1CAE13F85EBE13F4A0CE23F0E2DE23F97
:1077E400D34DE23FD34DE23F986EE23F5C8FE23FE0
:1077F40021B0E23FE5D0E23FE5D0E23FAAF1E23F2B
:107804006F12E33F3333E33FF853E33FF853E33F6F
:10781400BC74E33F8195E33F46B6E33F0AD7E33FB9
:107824000AD7E33FCFF7E33F9318E43F5839E43FE7
:107834001D5AE43F1D5AE43FE17AE43FA69BE43F2E
:107844006ABCE43F2FDDE43FF4FDE43FF4FDE43F94
:10785400B81EE53F7D3FE53F4260E53F0681E53FD9
:107864000681E53FCBA1E53F8FC2E53F54E3E53F09
:107874001904E63F1904E63FDD24E63FA245E63F4E
:107884006666E63F2B87E63F2B87E63FF0A7E63F99
:10789400B4C8E63F79E9E63F3D0AE73F3D0AE73FE2
:1078A400022BE73FC74BE73F8B6CE73F508DE73F29
:1078B400508DE73F14AEE73FD9CEE73F9EEFE73F59
:1078C4006210E83F6210E83F2731E83FEC51E83F9F
:1078D400B072E83F7593E83F39B4E83F39B4E83F04
:1078E400FED4E83FC3F5E83F8716E93F4C37E93F4C
:1078F4004C37E93F1058E93FD578E93F9A99E93F79
:107904005EBAE93F5EBAE93F23DBE93FE7FBE93FC3
:10791400AC1CEA3F713DEA3F713DEA3F355EEA3F08
:10792400FA7EEA3FBE9FEA3F83C0EA3F83C0EA3F54
:1079340048E1EA3F0C02EB3FD122EB3F9643EB3F99
:107944009643EB3F5A64EB3F1F85EB3FE3A5EB3FC8
:10795400A8C6EB3F6DE7EB3F6DE7EB3F3108EC3F2B
:10796400F628EC3FBA49EC3F7F6AEC3F7F6AEC3F74
:10797400448BEC3F08ACEC3FCDCCEC3F91EDEC3FBD
:1079840091EDEC3F560EED3F1B2FED3FDF4FED3FEA
:10799400A470ED3FA470ED3F6891ED3F2DB2ED3F33
:1079A400F2D2ED3FB6F3ED3FB6F3ED3F7B14EE3F7D
:1079B4003F35EE3F0456EE3FC976EE3FC976EE3FC3
:1079C4008D97EE3F52B8EE3F17D9EE3FDBF9EE3F0D
:1079D400DBF9EE3FA01AEF3F643BEF3F295CEF3F3A
:1079E400EE7CEF3FB29DEF3FB29DEF3F77BEEF3F9E
:1079F4003BDFEF3F0000F03FC520F03FC520F03FE4
:107A04008941F03F4E62F03F1283F03FD7A3F03F2D
:107A1400D7A3F03F9CC4F03F60E5F03F2506F13F5B
:107A2400E926F13FE926F13FAE47F13F7368F13FA4
:107A34003789F13FFCA9F13FFCA9F13FC1CAF13FED
:107A440085EBF13F4A0CF23F0E2DF23F0E2DF23F33
:107A5400D34DF23F986EF23F5C8FF23F21B0F23F7C
:107A640021B0F23FE5D0F23FAAF1F23F6F12F33FAB
:107A74003333F33FF853F33FF853F33FBC74F33F0E
:107A84008195F33F46B6F33F0AD7F33F0AD7F33F56
:107A9400CFF7F33F9318F43F5839F43F1D5AF43F9E
:107AA4001D5AF43FE17AF43FA69BF43F6ABCF43FCD
:107AB4002FDDF43F2FDDF43FF4FDF43FB81EF53F16
:107AC4007D3FF53F4260F53F4260F53F0681F53F5B
:107AD400CBA1F53F8FC2F53F54E3F53F54E3F53FA7
:107AE4001904F63FDD24F63FA245F63F6666F63FED
:107AF4002B87F63F2B87F63FF0A7F63FB4C8F63F37
:107B040079E9F63F3D0AF73F3D0AF73F022BF73F7D
:107B1400C74BF73F8B6CF73F508DF73F508DF73FC6
:107B240014AEF73FD9CEF73F9EEFF73F6210F83F10
:107B34006210F83F2731F83FEC51F83FB072F83F3C
:107B44007593F83F7593F83F39B4F83FFED4F83F86
:107B5400C3F5F83F8716F93F8716F93F4C37F93FCD
:107B64001058F93FD578F93F9A99F93F9A99F93F16
:107B74005EBAF93F23DBF93FE7FBF93FAC1CFA3F60
:107B8400713DFA3F713DFA3F355EFA3FFA7EFA3FA6
:107B9400BE9FFA3F83C0FA3F83C0FA3F48E1FA3FF1
:107BA4000C02FB3FD122FB3F9643FB3F9643FB3F36
:107BB4005A64FB3F1F85FB3FE3A5FB3FA8C6FB3F81
:107BC400A8C6FB3F6DE7FB3F3108FC3FF628FC3FAE
:107BD400BA49FC3FBA49FC3F7F6AFC3F448BFC3FF7
:107BE40008ACFC3FCDCCFC3FCDCCFC3F91EDFC3F41
:107BF400560EFD3F1B2FFD3FDF4FFD3FA470FD3FA1
:107C0400A470FD3F6891FD3F2DB2FD3FF2D2FD3FD0
:107C1400B6F3FD3FB6F3FD3F7B14FE3F3F35FE3F19
:107C24000456FE3FC976FE3FC976FE3F8D97FE3F60
:107C340052B8FE3F17D9FE3FDBF9FE3FDBF9FE3FAA
:107C4400A01AFF3F643BFF3F295CFF3FEE7CFF3FF0
:107C5400EE7CFF3FB29DFF3F77BEFF3F3BDFFF3F20
:107C6400000000400000004062100040C5200040B9
:107C7400273100408941004089410040EC510040D7
:107C84004E620040B0720040128300407593004081
:107C940075930040D7A3004039B400409CC4004011
:107CA400FED40040FED4004060E50040C3F500402F
:107CB400250601408716014087160140E926014048
:107CC4004C370140AE470140105801401058014064
:107CD40073680140D5780140378901409A99014081
:107CE4009A990140FCA901405EBA0140C1CA014011
:107CF40023DB014023DB014085EB0140E7FB01402E
:107D04004A0C0240AC1C0240AC1C02400E2D024046
:107D1400713D0240D34D0240355E0240986E0240F0
:107D2400986E0240FA7E02405C8F0240BE9F024081
:107D340021B0024021B0024083C00240E5D002409D
:107D440048E10240AAF10240AAF102400C020340B9
:107D54006F120340D12203403333034033330340D3
:107D640096430340F85303405A640340BC740340F1
:107D7400BC7403401F85034081950340E3A5034081
:107D840046B6034046B60340A8C603400AD703409C
:107D94006DE70340CFF70340310804403108044045
:107DA40093180440F628044058390440BA49044062
:107DB400BA4904401D5A04407F6A0440E17A0440F1
:107DC400448B0440448B0440A69B044008AC04400C
:107DD4006ABC0440CDCC0440CDCC04402FDD04402B
:107DE40091ED0440F4FD0440560E0540560E054046
:107DF400B81E05401B2F05407D3F0540DF4F054061
:107E0400DF4F054042600540A470054006810540EF
:107E14006891054068910540CBA105402DB205400D
:107E24008FC20540F2D2054054E3054054E30540B7
:107E3400B6F30540190406407B140640DD240640D1
:107E4400DD2406403F350640A24506400456064060
:107E54006666064066660640C97606402B8706407D
:107E64008D970640F0A70640F0A7064052B806409A
:107E7400B4C8064017D9064079E9064079E90640B6
:107E8400DBF906403D0A0740A01A0740022B0740D1
:107E9400022B0740643B0740C74B0740295C07405F
:107EA4008B6C07408B6C0740EE7C0740508D07407D
:107EB400B29D074014AE074077BE074077BE074027
:107EC400D9CE07403BDF07409EEF07400000084043
:107ED4000000084062100840C520084027310840CF
:107EE4008941084089410840EC5108404E620840ED
:107EF400B07208401283084012830840759308400A
:107F0400D7A3084039B408409CC408409CC4084026
:107F1400FED4084060E50840C3F508402506094042
:107F24002506094087160940E92609404C370940CF
:107F3400AE47094010580940105809407368094079
:107F4400D5780940378909409A9909409A99094096
:107F5400FCA909405EBA0940C1CA094023DB0940B3
:107F640023DB094085EB0940E7FB09404A0C0A4042
:107F7400AC1C0A40AC1C0A400E2D0A40713D0A405C
:107F8400D34D0A40355E0A40355E0A40986E0A4079
:107F9400FA7E0A405C8F0A40BE9F0A40BE9F0A4098
:107FA40021B00A4083C00A40E5D00A4048E10A40B3
:107FB40048E10A40AAF10A400C020B406F120B4040
:107FC400D1220B4033330B4033330B4096430B40E9
:107FD400F8530B405A640B40BC740B40BC740B4008
:107FE4001F850B4081950B40E3A50B4046B60B4023
:107FF40046B60B40A8C60B400AD70B406DE70B40B2
:10800400CFF70B40CFF70B4031080C4093180C40CE
:10801400F6280C4058390C4058390C40BA490C40E9
:108024001D5A0C407F6A0C40E17A0C40E17A0C4006
:10803400448B0C40A69B0C4008AC0C406ABC0C4022
:10804400CDCC0C40CDCC0C402FDD0C4091ED0C4040
:10805400F4FD0C40560E0D40560E0D40B81E0D405A
:108064001B2F0D407D3F0D40DF4F0D40DF4F0D4076
:1080740042600D40A4700D4006810D4068910D4092
:1080840068910D40CBA10D402DB20D408FC20D4023
:10809400F2D20D40F2D20D4054E30D40B6F30D4040
:1080A40019040E407B140E407B140E40DD240E4058
:1080B4003F350E40A2450E4004560E4004560E4075
:1080C40066660E40C9760E402B870E408D970E4093
:1080D400F0A70E40F0A70E4052B80E40B4C80E40B0
:1080E40017D90E4079E90E4079E90E40DBF90E40CC
:1080F4003D0A0F40A01A0F40022B0F40022B0F40E5
:10810400643B0F40C74B0F40295C0F408B6C0F4002
:108114008B6C0F40EE7C0F40508D0F40B29D0F4092
:1081240014AE0F4014AE0F4077BE0F40D9CE0F40AF
:108134003BDF0F409EEF0F409EEF0F4000001040CA
:1081440062101040C52010402731104027311040E4
:1081540089411040EC5110404E621040B072104002
:10816400128310401283104075931040D7A310401F
:1081740039B410409CC410409CC41040FED410403C
:1081840060E51040C3F51040250611402506114056
:1081940087161140E92611404C371140AE47114073
:1081A400AE4711401058114073681140D578114002
:1081B40037891140378911409A991140FCA911401F
:1081C4005EBA1140C1CA1140C1CA114023DB11403B
:1081D40085EB1140E7FB11404A0C1240AC1C1240E5
:1081E400AC1C12400E2D1240713D1240D34D124072
:1081F400355E1240355E1240986E1240FA7E12408F
:108204005C8F1240BE9F1240BE9F124021B01240AC
:1082140083C01240E5D0124048E1124048E11240C8
:10822400AAF112400C0213406F121340D1221340E2
:10823400D12213403333134096431340F853134071
:108244005A6413405A641340BC7413401F8513408E
:1082540081951340E3A51340E3A5134046B61340AC
:10826400A8C613400AD713406DE71340CFF7134055
:10827400CFF713403108144093181440F6281440E3
:108284005839144058391440BA4914401D5A1440FE
:108294007F6A1440E17A1440E17A1440448B14401C
:1082A400A69B144008AC14406ABC14406ABC144039
:1082B400CDCC14402FDD144091ED1440F4FD144056
:1082C400F4FD1440560E1540B81E15401B2F1540E2
:1082D4007D3F15407D3F1540DF4F154042601540FE
:1082E400A47015400681154006811540689115401B
:1082F400CBA115402DB215408FC21540F2D21540C6
:10830400F2D2154054E31540B6F315401904164053
:108314007B1416407B141640DD2416403F3516406E
:10832400A24516400456164004561640666616408A
:10833400C97616402B8716408D9716408D971640A8
:10834400F0A7164052B81640B4C8164017D91640C4
:1083540017D9164079E91640DBF916403D0A174053
:10836400A01A1740A01A1740022B1740643B17406D
:10837400C74B1740295C17408B6C17408B6C174018
:10838400EE7C1740508D1740B29D174014AE174035
:1083940014AE174077BE1740D9CE17403BDF1740C5
:1083A4009EEF17409EEF17400000184062101840DF
:1083B400C5201840273118402731184089411840FA
:1083C400EC5118404E621840B0721840B072184018
:1083D4001283184075931840D7A3184039B4184035
:1083E40039B418409CC41840FED4184060E51840C5
:1083F400C3F51840C3F518402506194087161940DF
:10840400E92619404C371940AE471940AE47194088
:108414001058194073681940D578194037891940A4
:10842400378919409A991940FCA919405EBA194034
:10843400C1CA1940C1CA194023DB194085EB194050
:10844400E7FB19404A0C1A404A0C1A40AC1C1A406B
:108454000E2D1A40713D1A40D34D1A40D34D1A4087
:10846400355E1A40986E1A40FA7E1A405C8F1A40A4
:108474005C8F1A40BE9F1A4021B01A4083C01A4034
:10848400E5D01A4048E11A4048E11A40AAF11A40DE
:108494000C021B406F121B40D1221B40D1221B40F7
:1084A40033331B4096431B40F8531B405A641B4014
:1084B4005A641B40BC741B401F851B4081951B40A4
:1084C400E3A51B40E3A51B4046B61B40A8C61B40C2
:1084D4000AD71B406DE71B406DE71B40CFF71B40DD
:1084E40031081C4093181C40F6281C40F6281C40F8
:1084F40058391C40BA491C401D5A1C407F6A1C4014
:108504007F6A1C40E17A1C40448B1C40A69B1C40A3
:1085140008AC1C406ABC1C406ABC1C40CDCC1C404E
:108524002FDD1C4091ED1C40F4FD1C40F4FD1C406B
:10853400560E1D40B81E1D401B2F1D407D3F1D4083
:108544007D3F1D40DF4F1D4042601D40A4701D4013
:1085540006811D4006811D4068911D40CBA11D4030
:108564002DB21D408FC21D408FC21D40F2D21D404E
:1085740054E31D40B6F31D4019041E4019041E4067
:108584007B141E40DD241E403F351E40A2451E4084
:10859400A2451E4004561E4066661E40C9761E4013
:1085A4002B871E408D971E408D971E40F0A71E40BE
:1085B40052B81E40B4C81E4017D91E4017D91E40D9
:1085C40079E91E40DBF91E403D0A1F40A01A1F40F6
:1085D400A01A1F40022B1F40643B1F40C74B1F4083
:1085E400295C1F40295C1F408B6C1F40EE7C1F40A0
:1085F400508D1F40B29D1F40B29D1F4014AE1F40BE
:1086040077BE1F40D9CE1F403BDF1F403BDF1F40DA
:108614009EEF1F400000204062102040C5202040F3
:10862400273120402731204089412040EC5120400F
:108634004E622040B0722040B0722040128320402D
:1086440075932040D7A3204039B4204039B420404A
:108654009CC42040FED4204060E52040C3F5204067
:10866400C3F520402506214087162140E9262140F4
:108674004C3721404C372140AE472140105821400F
:1086840073682140D5782140D5782140378921402D
:108694009A992140FCA921405EBA21405EBA21404A
:1086A400C1CA214023DB214085EB2140E7FB214067
:1086B4004A0C22404A0C2240AC1C22400E2D22407F
:1086C400713D2240D34D2240D34D2240355E22409D
:1086D400986E2240FA7E22405C8F22405C8F2240BA
:1086E400BE9F224021B0224083C02240E5D02240D8
:1086F400E5D0224048E12240AAF122400C02234066
:108704006F1223406F122340D1222340333323407E
:1087140096432340F8532340F85323405A6423409C
:10872400BC7423401F8523408195234081952340B9
:10873400E3A5234046B62340A8C623400AD72340D6
:108744006DE723406DE72340CFF7234031082440F1
:1087540093182440F6282440F6282440583924400D
:10876400BA4924401D5A24407F6A24407F6A244029
:10877400E17A2440448B2440A69B244008AC244046
:1087840008AC24406ABC2440CDCC24402FDD2440D6
:1087940091ED244091ED2440F4FD2440560E2540F3
:1087A400B81E25401B2F25401B2F25407D3F25400B
:1087B400DF4F254042602540A470254006812540B6
:1087C4000681254068912540CBA125402DB2254046
:1087D4008FC225408FC22540F2D2254054E3254064
:1087E400B6F3254019042640190426407B1426407C
:1087F400DD2426403F352640A2452640A24526409A
:108804000456264066662640C97626402B872640B5
:108814002B8726408D972640F0A7264052B8264045
:10882400B4C82640B4C8264017D9264079E9264062
:10883400DBF926403D0A27403D0A2740A01A27407D
:10884400022B2740643B2740C74B2740295C274025
:10885400295C27408B6C2740EE7C2740508D2740B5
:10886400B29D2740B29D274014AE274077BE2740D3
:10887400D9CE27403BDF27403BDF27409EEF2740F0
:108884000000284062102840C5202840C520284008
:108894002731284089412840EC5128404E62284025
:1088A4004E622840B07228401283284075932840B5
:1088B400D7A32840D7A3284039B428409CC42840D3
:1088C400FED4284060E52840C3F52840C3F528407D
:1088D4002506294087162940E92629404C37294096
:1088E4004C372940AE472940105829407368294025
:1088F400D5782940D5782940378929409A99294043
:10890400FCA929405EBA29405EBA2940C1CA29405F
:1089140023DB294085EB2940E7FB2940E7FB29407D
:108924004A0C2A40AC1C2A400E2D2A40713D2A4094
:10893400713D2A40D34D2A40355E2A40986E2A4024
:10894400FA7E2A40FA7E2A405C8F2A40BE9F2A4043
:1089540021B02A4083C02A40E5D02A40E5D02A40ED
:1089640048E12A40AAF12A400C022B406F122B4006
:108974006F122B40D1222B4033332B4096432B4094
:10898400F8532B40F8532B405A642B40BC742B40B3
:108994001F852B4081952B4081952B40E3A52B40CF
:1089A40046B62B40A8C62B400AD72B400AD72B40EB
:1089B4006DE72B40CFF72B4031082C4093182C4007
:1089C40093182C40F6282C4058392C40BA492C4096
:1089D4001D5A2C401D5A2C407F6A2C40E17A2C40B1
:1089E400448B2C40A69B2C4008AC2C4008AC2C405B
:1089F4006ABC2C40CDCC2C402FDD2C4091ED2C407A
:108A040091ED2C40F4FD2C40560E2D40B81E2D4007
:108A14001B2F2D401B2F2D407D3F2D40DF4F2D4020
:108A240042602D40A4702D40A4702D4006812D403D
:108A340068912D40CBA12D402DB22D402DB22D405B
:108A44008FC22D40F2D22D4054E32D40B6F32D4079
:108A5400B6F32D4019042E407B142E40DD242E4005
:108A64003F352E40A2452E40A2452E4004562E40AE
:108A740066662E40C9762E402B872E402B872E40CB
:108A84008D972E40F0A72E4052B82E40B4C82E40E9
:108A9400B4C82E4017D92E4079E92E40DBF92E4078
:108AA4003D0A2F403D0A2F40A01A2F40022B2F4091
:108AB400643B2F40C74B2F40C74B2F40295C2F40AE
:108AC4008B6C2F40EE7C2F40508D2F40508D2F40CB
